:020000040800F2
:10000000402E00209D010008210700081907000864
:100010001D070008CF020008590900080000000071
:100020000000000000000000000000008D07000834
:10003000B1040008000000008B0700088F070008CB
:10004000B7010008B7010008B7010008B7010008B0
:10005000B7010008B7010008B7010008B7010008A0
:10006000B7010008B7010008B7010008B701000890
:10007000B7010008B7010008B7010008B701000880
:10008000B7010008B7010008B7010008B701000870
:10009000B7010008B7010008B7010008B701000860
:1000A000B7010008B7010008B7010008B701000850
:1000B000B7010008B7010008B7010008B701000840
:1000C000B7010008B7010008B7010008B701000830
:1000D000B7010008B7010008B7010008B701000820
:1000E000B7010008B7010008B7010008B701000810
:1000F000B7010008B7010008B7010008B701000800
:10010000B7010008B70100086D080008B701000832
:10011000B7010008F9080008B7010008B701000896
:10012000B7010008B7010008B7010008B7010008CF
:10013000B7010008B7010008B7010008B7010008BF
:10014000B7010008B7010008B7010008B7010008AF
:10015000B7010008B7010008B7010008B70100089F
:10016000B7010008B7010008B7010008B70100088F
:10017000B7010008B7010008B7010008000000003F
:10018000B7010008B7010008DFF80CD000F06EF8E6
:1001900000480047F5150008402E0020064880471B
:1001A00006480047FEE7FEE7FEE7FEE7FEE7FEE75C
:1001B000FEE7FEE7FEE7FEE7990700088901000871
:1001C00040EA01039B0703D009E008C9121F08C0D9
:1001D000042AFAD203E011F8013B00F8013B521E59
:1001E000F9D27047D2B201E000F8012B491EFBD2D0
:1001F00070470022F6E710B513460A460446194632
:10020000FFF7F0FF204610BD2DE9F05F0546002006
:1002100092469B4688460646814640241BE0284677
:1002200041464746224600F042F853465A46C01A15
:10023000914110D311461846224600F029F82D1A94
:1002400067EB01084F4622460120002100F020F80C
:1002500017EB00094E41201EA4F10104DFDC4846E3
:1002600031462A464346BDE8F09F0000064C074D44
:1002700006E0E06840F0010394E807009847103476
:10028000AC42F6D3FFF784FFEC2900080C2A0008E3
:10029000202A04DB203A00FA02F100207047914046
:1002A000C2F1200320FA03F3194390407047202A3B
:1002B00004DB203A21FA02F00021704721FA02F310
:1002C000D040C2F12002914008431946704700BF58
:1002D000FEE730B502460B464FF6FF7000211AE0EC
:1002E000802115E000F400443CB14FF6FF7404EAAD
:1002F000400041F22104604003E04FF6FF7404EA3D
:10030000400014780C4014B141F2210460404910BF
:100310000029E7D1521C1C1EA3F10105ABB2DFD1AD
:1003200030BD000070B5ADF5006D4FF6FF7425A02F
:1003300000F014FB00263BE0274901EBC6208A149D
:10034000694600F0E3FE00252DE01DF8250080EA57
:100350002420C0B2214931F8100080EA042084B280
:100360003DF82500C0F3072080EA242031F8100072
:1003700080EA042084B25DF82500C0F3074080EADB
:10038000242031F8100080EA042084B220125DF8A5
:10039000251080EA1160114931F8100080EA04202C
:1003A00084B2681C85B2B5F5007FCEDB701C86B2C6
:1003B0003A2EC1DB0AA000F0D1FA20460DF5006DFF
:1003C00070BD0000737461727420666C6173682084
:1003D00063726321090D0A0000400008DA27000853
:1003E00066696E736820666C61736820637263214E
:1003F000090D0A007FB504460025AA208DF80000EB
:100400008DF801008DF802002A208DF803002020CD
:100410008DF8040002208DF8050040F25A70ADF806
:1004200006000120ADF8080020788DF80A000821A8
:100430000DF10300FFF74DFFADF80B0023208DF801
:100440000D000DA000F08AFA00BF04E0615D0CA071
:1004500000F084FA6D1C0E2DF8DB0BA000F07EFA84
:100460000E226946094801F033FD2278BDF80610D6
:1004700007A000F073FA7FBD73656E643A00000058
:1004800025303278200000000D0A000000500040A6
:10049000436F6D54785461736B204374726C4D6F6D
:1004A00064653D257820646174613D25780D0A00FE
:1004B000704770B504460D46D32000F02BFD08E0D0
:1004C000204600F061FD10B14FF0FF3070BD04F523
:1004D0008054281EA5F10105F2D100BFF6E7000007
:1004E00070B504460D46164632462B4621462DB1C0
:1004F000B4F1006F02D30E48844201D3002070BDD6
:1005000004E0086818601B1D091D121F042A03D38C
:100510000748001F8142F4D904E011F8010B03F8E9
:10052000010B521E12B102488142F6D3B01AE6E71F
:10053000000004082DE9F74F84B0074690464FF0BD
:100540000009002500200390002402904646DDF8B3
:1005500014A0B7F1006F08D34848874205D8B8F116
:10056000000F02D0BAF1000F03D1002007B0BDE8A0
:10057000F08F00F07DFDA7F1006002900298050B5E
:100580000298C0F34A0003900398C0F50064A642A5
:1005900000D8344668E0402D00D367E04FF000619A
:1005A00001EB0530CA133649FFF79AFF4FF00009F7
:1005B0000CE03349039801EB400030F819004FF686
:1005C000FF71884200D003E009F10109A145F0D391
:1005D00000BFA1452CD20020019083464FF000615E
:1005E00001EB05300121FFF764FF002800DA3DE050
:1005F0004FF0000B09E03AF81B10214A039802EB78
:10060000400020F81B100BF1010BA345F3D34FF072
:10061000006101EB05300A14194900F033F801902C
:100620000198B0F5006F02D00198361A1EE00BE079
:1006300022465146384600F025F88346A34502D0AD
:10064000A6EB0B0612E000BF0AEB440A07EB4407D7
:10065000361B6D1C00200390B6F5006F02D34FF4DB
:10066000006000E030460446002E94D100BF00F048
:1006700081FCA8EB0600400078E70000FEFF0308BD
:100680003C0200202DE9F04104460D46164637464F
:10069000DFF82C800EE0444500D90DE02988204683
:1006A00000F03EFC20882988884200D004E07F1EAC
:1006B000AD1CA41C002FEED100BFF01BBDE8F081E3
:1006C000FEFF03082DE9F04104460D46002700F027
:1006D000CFFC012000F01EFC102000F01BFC0220CB
:1006E00000F018FC12E0E60AF00200F04DFC0746AC
:1006F0000FB1BDE8F081012000F00CFC102000F0EB
:1007000009FC022000F006FC04F50064AC42EAD3C8
:1007100000F030FC00BFECE700BFFEE700BFFEE7E3
:100720007047000010B5002807DA0A07140E054AC2
:1007300000F00F031B1FD45403E00A07130E024AF4
:10074000135410BD18ED00E000E400E0BFF34F8F3C
:100750000648006800F4E06005490843001D0349AD
:100760000860BFF34F8F00BFFEE700000CED00E014
:100770000000FA0510B54FF4E06001F011F9012214
:100780000021322001F0AAF810BD7047704710B563
:1007900000F094FB10BD000008B53048006840F43C
:1007A00070002E4908602E48006840F001002C4976
:1007B000086000BF2A48006800F002000028F9D055
:1007C00000BF27480830006840F080002449083105
:1007D00008600020009002E00098401C0090009803
:1007E0005028F9D31E480830006840F090001C499A
:1007F000083108600020009002E00098401C009042
:1008000000985028F9D300BF15480830006820F040
:100810000300134908310860114800681149084075
:100820000F4908600846006820F480200860002016
:100830000B490831086000BF0948083000680020F3
:100840000028F9D108480649091D0860002004491C
:100850000C31086001F044FA08BD000088ED00E0AA
:1008600000380240FFFFF6FE1030002410B50121D1
:100870000C4801F0BEFA012812D10121094801F00B
:10088000B5FA09480088401C0749088007480068F5
:10089000401C0649086006480068401C044908607E
:1008A00010BD0000000C00401800002024000020B3
:1008B0002C0000201FB541F2030001F00DF9772054
:1008C000ADF800000020ADF80200ADF804004FF4D0
:1008D0007A7002900020ADF806006946054801F0E4
:1008E00035FA0121034801F07DFA024801F029FAA6
:1008F0001FBD0000000C004010B51149114801F067
:1009000028FFE0B110480088B0F5006F0CDA0D4800
:1009100001F060FEC1B20C4802880088401C0A4BFE
:1009200018800A48815404E007480088401C0649A2
:10093000088000200649088001200649087010BD83
:100940000503050000500040200000203C1200205C
:10095000180000202200002000BFFEE70FB4054B66
:1009600010B503A9044A029800F018F810BC5DF80D
:1009700014FB0000E91000083800002002E008C85D
:10098000121F08C1002AFAD170477047002001E009
:1009900001C1121F002AFBD1704700002DE9FF4F53
:1009A0008DB00F460546002606E025280BD0DDE970
:1009B0000F1290476D1C761C28780028F5D111B0D5
:1009C0003046BDE8F08F0024A246A1460122EC4942
:1009D00000E0044315F8013F203B02FA03F008420F
:1009E000F7D128782A2810D06FF02F022878A0F1AC
:1009F0003001092914D80AEB8A0102EB410144F0C5
:100A0000020400EB010A6D1CF0E701CF5FEA000A67
:100A100003D544F40054CAF1000A44F002046D1CEA
:100A200028782E2817D115F8010F44F004042A283D
:100A30000ED06FF02F022878A0F1300109290AD8D2
:100A400009EB890102EB410100EB01096D1CF2E7A2
:100A500057F8049B6D1C28786C280FD006DC4C28B6
:100A600017D068280DD06A2814D104E0742810D05B
:100A70007A280FD10DE044F400140AE044F4801405
:100A800001E044F440146978814202D104F58014F5
:100A90006D1C6D1C2A786E2A1FD00CDC632A31D0A5
:100AA00004DC002A8BD0582A11D1A3E0642A68D034
:100AB000692A0CD165E0732A2ED004DC6F2A73D02A
:100AC000702A04D19BE0752A6FD0782A6ED0104628
:100AD000DDE90F129047761C50E1C4F30250022862
:100AE00006D0032809D0042801CF09D0066045E1CB
:100AF00001CFF117C0E9006140E101CF06803DE17F
:100B000006703BE117F8040B8DF8000000208DF80B
:100B10000100EB46012003E057F804BB4FF0FF3023
:100B200061074FF0000102D40DE008F10101884691
:100B300049450FDA8045F8DB1BF808100029F4D18D
:100B400008E008F1010188468142FADB1BF8081031
:100B50000029F6D1DDE90F23AAEB080081462146E2
:100B600000F036F9304400EB080604E0DDE90F122E
:100B70001BF8010B9047B8F10108F7D2214648460F
:100B8000F7E00A21C4F302534FF0000B0891022B47
:100B900004D001CFC117032B09D00AE0FF1D27F0B5
:100BA0000707F7E8020108E032E01FE020E000B2AA
:100BB000C117042B01D140B2C117031E71F100030C
:100BC00007DA4FF0000CD0EB0C006CEB01012D2389
:100BD00002E0230504D52B238DF82430012303E004
:100BE000E30701D02023F7E7984658E00A2110E0F8
:100BF00010210EE010204FF0000B08900CE01021A7
:100C00004FF0000B44F004044FF00809089103E092
:100C100008214FF0000B0891C4F30253022B04D0BB
:100C200001CF0021032B06D006E0FF1D27F00707A8
:100C3000F7E8020103E080B2042B00D1C0B24FF00C
:100C4000000823072BD5702A07D0DDF820C08CF0D0
:100C5000100C5CEA0B0C05D00EE040238DF824301C
:100C6000012308E050EA010306D030238DF8243038
:100C70008DF8252002239846DDF820C08CF0080C62
:100C80005CEA0B0C0BD150EA010301D1630706D5D6
:100C900030238DF824304FF00108A9F10109582ABA
:100CA00004D038A20B9208AA0A920BE03AA2F9E704
:100CB0005B46089AFFF7A8FA0B9B9B5C0A9A521EA8
:100CC0000A92137050EA0102F2D10A98ADEB0000CB
:100CD00000F1200B600702D524F4803401E04FF0CE
:100CE0000109D94502DDA9EB0B0000E0002000EB73
:100CF0000B0141440890AAEB010AE00306D4DDE9A8
:100D00000F232146504600F063F806444FF00009D7
:100D100008E009A911F80900DDE90F12904709F16F
:100D20000109761CC145F4DBE0030CD5DDE90F2396
:100D30002146504600F04CF8064404E0DDE90F126D
:100D400030209047761C0899481E08900029F5DC51
:100D500008E00A980A990078491C0A91DDE90F1207
:100D60009047761CBBF10001ABF1010BF1DC214691
:100D70005046DDE90F2300F019F806446D1C1BE610
:100D80000928010030313233343536373839616261
:100D90006364656600000000303132333435363725
:100DA0003839414243444546000000002DE9F041F6
:100DB000044600251E461746880404D405E039463B
:100DC0002020B0476D1C641EF9D52846BDE8F0818F
:100DD0002DE9F041044600251E469046C80301D582
:100DE000302700E02027880404D505E04146384636
:100DF000B0476D1C641EF9D52846BDE8F08100009F
:100E000030B581B0ADF5805D05462A4619491AA076
:100E1000FFF7A4FDADB1002410E01B4901EB043045
:100E20004A1401A900F072F9184901EB04304FF49B
:100E3000806201A900F096F9601C84B21D2CECDBE5
:100E400014E0002410E0114901EB04304FF48062FB
:100E500001A900F05BF90C4901EB04304A1401A927
:100E600000F080F9601C84B21D2CECDB01B00DF5A4
:100E7000805D30BDDA29000825733A20666C616711
:100E8000203D2025640D0A000040000800100208E3
:100E900008B500200090012269460248FFF74AFB8E
:100EA00008BD000004F303080349086000BF0249BD
:100EB00009680029FBD170471C0000200448006825
:100EC00020B103480068401E0149086070470000D7
:100ED0001C00002005A0FFF741FD03200B490880FE
:100EE00001220B48FFF726FBFFF730FC65737033D8
:100EF000325F68656172745F6572726F725F746F82
:100F00006261636B75700D0A000000001400002020
:100F100010F0030801490860704700000C3C0240D3
:100F200070B504460D4600266FF0304000F06AF8B8
:100F30000646DEB90E48006820F440700C4908608F
:100F40000846006840F4807008600846006840F079
:100F50000100086025806FF0304000F053F806462D
:100F60000348006820F0010001490860304670BD68
:100F7000103C02400348006840F00040014908600E
:100F800070470000103C024030B5044600256FF069
:100F9000304000F037F805466DBB18481849086026
:100FA00044F00040091F086015481438006820F01C
:100FB000F8001349143908600846006840F0020040
:100FC00008600846006840F4803008606FF03040E8
:100FD00000F018F805460A48001F006820F000409D
:100FE0000749091F086006481438006820F002000D
:100FF000034914390860284630BD0000D6C7B8A997
:10100000243C024010B50346012400BF00F00AF85A
:1010100004465B1E012C01D1002BF7D103B9072434
:10102000204610BD0020114A116801F480320AB137
:10103000012019E001F480720AB1022014E001F0ED
:1010400080020AB103200FE001F040020AB104203F
:101050000AE001F010020AB1052005E001F00202E9
:101060000AB1062000E00020704700000C3C02405E
:101070000548006800F0004028B1044802490C39D6
:101080000860034808607047103C02402301674530
:10109000AB89EFCD70B504460D4600266FF03040A9
:1010A000FFF7B0FF0646DEB90E48006820F4407036
:1010B0000C4908600846006840F400700860084663
:1010C000006840F00100086025606FF03040FFF7D5
:1010D00099FF06460348006820F0010001490860B6
:1010E000304670BD103C024070B504460D46E1B27A
:1010F000054801F074FA00BF0721034801F0ECFA3B
:101100000028F9D0204670BD004800402DE9F0418C
:1011100005460E46144605EB84000A49884205D967
:1011200009A0FFF71BFC0020BDE8F081002704E0C8
:10113000286830602D1D7F1C361DA742F8D320463D
:10114000F2E70000FFFF03086572726F72212065ED
:10115000786365656420656E64206164647265739C
:10116000732021002DE9F04105460C461646002764
:10117000B846FFF77DFF0120FFF7CCFE1020FFF7F8
:10118000C9FE0220FFF7C6FE2846FFF7FDFE804697
:1011900007E028462168FFF77DFF80462D1D241DAE
:1011A0007F1CB74202D2B8F1000FF2D0FFF7E2FE87
:1011B0000020BDE8F081AA210170417081702A21D0
:1011C000C17020210171022141710021018170470C
:1011D000F0B503461C6A5D6A00200DE001268640DA
:1011E00016403EB187000F26BE40B443860001FA88
:1011F00006F63443461CB0B20828EFD3082011E0AD
:101200000126864016405EB1A0F10806B7000F2601
:10121000BE40B543A0F10806B60001FA06F6354314
:10122000461CB0B21028EBD31C625D62F0BD816237
:10123000704781617047000010B504464FF440606C
:1012400000F04AFC40F6014000F046FC40F6044045
:1012500000F042FC702300220121204800F044F8F5
:101260007023022200211D4800F065F84FF410435E
:10127000002201211A4800F037F84FF410430222EF
:101280000021174800F057F80223002201211548D9
:1012900000F02AF802231A460021124800F04BF809
:1012A0004FF400410E48FFF7C4FF4FF480510C4843
:1012B000FFF7BDFF012C07D110210848FFF7B9FF48
:1012C00020210648FFF7B5FF02210648FFF7B1FFCE
:1012D00040210248FFF7ADFF10BD000000000240B2
:1012E0000004024000100240F0B504460D461646C8
:1012F0002168E268002019E0012787401F409FB164
:101300004FEA400C032707FA0CF7B943470005FAE8
:1013100007F739434FEA400C032707FA0CF7BA43A3
:10132000470006FA07F73A43471CB8B21028E3D340
:101330002160E260F0BDF0B50C461546012C03D1EA
:1013400046681E43466002E046689E4346608268E7
:1013500000210DE001268E401E403EB14F000326C5
:10136000BE40B2434E0005FA06F632434E1CB1B2FF
:101370001029EFD38260F0BD08B50AA0FFF7EEFA9E
:10138000022269460E48FFF7ABF8BDF8000040F4B2
:1013900000400090012269460948FFF7CBF8FFF7AB
:1013A000D5F90000686172645F6661756C745F7284
:1013B000657365742073746172740D0A0000000017
:1013C00004F3030810B59EB00124642205A9564811
:1013D000FFF786F8002007E005A9095CFF2901D086
:1013E000002403E0411C88B26428F5DB00BF7CB117
:1013F0004EA0FFF7B3FA0120FFF702FDFFF748FD0B
:1014000000200490022204A94C48FFF793F85BE007
:101410004BA0FFF7A3FA042204A94848FFF760F89D
:10142000022202A94548001DFFF75AF80020039048
:10143000DDE90301401A00904548016845A0DDE957
:101440000323FFF78BFADDE90301401AB0F5967F1D
:1014500032D2BDF8080000F4004068B3BDF80800BF
:10146000C0F30E000290BDF80800401C80B202904C
:10147000BDF8081047A0FFF771FABDF8080005286D
:101480000DDB00200290FFF703FD03204649088092
:1014900001224648FFF74EF80020FFF7B1FC012279
:1014A00002A92648001DFFF745F802203E490880A2
:1014B00001223E48FFF73EF80C200390022203A9C8
:1014C0001E48FFF737F800BF39480068394908401F
:1014D000B0F1005F21D138A0FFF740FA3B4800F09F
:1014E0002BFC3B4801F0EEF83A4801F0EBF840F2F3
:1014F0000531384801F013F92D4840683649086035
:1015000008460068354908602949086880F308885A
:1015100000BF32480068804704E031A0FFF71EFAA0
:10152000FFF72AFF1EB010BD001002086261636B56
:101530005F69735F656D7074790D0A0000F30308CD
:101540006261636B5F69735F66756C6C0D0A0000A6
:10155000743802400D0A5243555F52535453434B63
:101560003A3078253038582C626F6F742D6E6F7753
:1015700074696D653A25642C6C6173745F74696D70
:10158000653A25642C74696D65646966663A2564FC
:101590000D0A0000626F6F742D72657365746E754D
:1015A0006D3A25640D0A00001400002010F00308B5
:1015B000004000080000FE2F6A756D7020746F20D7
:1015C0006170702069660D0A00000000000C004088
:1015D00000500040004800400800002004000020A7
:1015E0006A756D7020746F20617070206572726F03
:1015F000720D0A0008B500F077FB00F015FF00F04F
:1016000005FC012279497A48FEF76AFF774801888C
:1016100078A0FFF7A3F975480088052806DB0420A9
:101620007249088001227248FEF784FF6F480188E2
:1016300075A0FFF793F96D480088FFF7FDFDFFF7F0
:1016400099F8FFF737F962B6102074490880002036
:101650000090012269467248FEF742FF6348038802
:10166000BDF8002010216FA0FFF778F9BDF8000049
:10167000102804D0012269496948FEF75BFF642005
:10168000FFF712FC59480088052874D2DFE800F003
:10169000030688927400FFF795FEA4E004205349E6
:1016A000088001225248FEF745FF0120FFF7A8FB02
:1016B00003204E49088001224D48FEF73BFF64207D
:1016C000FFF7F2FB00206249088062496248FEF79A
:1016D000F9FF6420FFF7E8FB01225721104600F0D4
:1016E0004DFA0A20FFF7E0FB00F033FA00205B49D7
:1016F00008703FE0584800F009FC30B1012805D0DF
:10170000022819D003282ED129E000BF0020FFF7BE
:1017100077FB53A0FFF722F9022034490880012209
:101720003348FEF707FF4FF4FA70FFF7BDFBFFF7F2
:10173000AFFBFFF747FE16E04EA0FFF70FF90220C0
:101740002A49088001222A48FEF7F4FE4FF4FA7075
:10175000FFF7AAFBFFF79CFBFFF734FE03E04AA06C
:10176000FFF7FCF800BF00BF0A20FFF79DFB4BA06E
:10177000FFF7F4F8BEE733E00120FFF741FB3DA09F
:10178000FFF7ECF802201949088001221848FEF7FB
:10179000D1FE4FF4FA70FFF787FBFFF713FE22E04C
:1017A0003FA0FFF7DBF84FF4FA70FFF77DFBFFF780
:1017B00009FE18E00020FFF723FB41A0FFF7CEF859
:1017C00000200A49088001220948FEF7B3FE4FF4C1
:1017D000FA70FFF769FBFFF75BFBFFF7F3FD02E031
:1017E000FFF7F0FD00BF00BF002008BD140000207F
:1017F00010F0030875706461746120666C61673174
:101800002025640D0A000000757064617461206613
:101810006C6167322025640D0A000000160000206C
:1018200000F20308424F4F544C4F4144455220565A
:10183000455253494F4E205B25642025645D205559
:101840005044415445205B25645D0D0A00000000B2
:101850002800002000100208004000082A00002094
:10186000757064617461206661696C6564210D0A3C
:1018700000000000757064617461207375636365B6
:101880007373210D0A00000062757379207570640E
:101890006174696E67210D0A000000002E000000CF
:1018A0007570646174696E6720616C7265616479DA
:1018B0002066696E6973686564210D0A0000000086
:1018C0007768656E207570646174696E6720706FEB
:1018D000776572206F6666210D0A00002DE9F041E0
:1018E00003460D46164600240027A0462A480068F5
:1018F00000F4E060B0F5E06F03D100BF4FF00408E2
:1019000030E02548006800F4E060B0F5C06F03D116
:1019100001274FF0030825E01F48006800F4E0604D
:10192000B0F5A06F02D10227B8461BE01A48006844
:1019300000F4E060B0F5806F03D103274FF0010899
:1019400010E01548006800F4E060B0F5407F03D176
:1019500004274FF0000805E04FF4A06000F020F8E5
:101960000227B846C7F1040005FA00F4C8F10401E3
:101970000F20C8403040044324010848C45403F0F9
:101980001F01012088405911890001F1E021C1F8AF
:101990000001BDE8F08100000CED00E000E400E093
:1019A00002490143024A1160704700000000FA0535
:1019B0000CED00E02DE9F04F8CB0064600200A90B7
:1019C0003EA090E8004CC068CDE905BECDF810A05F
:1019D00007900FF2EC0ADAE9000ACDE9020A0FF2E9
:1019E000E00ADAE9000ACDE9000A38480068C0F3E5
:1019F00081000B900B9820B1012804D0022828D137
:101A000003E0334927E0334925E03048001F0068F0
:101A100000F03F072D48001F0068C0F3881C2B48CA
:101A2000001F0068C0F30140401C4FEA40092748EE
:101A3000001F006800F48008B8F5800F01D1254B25
:101A400000E0234BB3FBF7F000FB0CF0B0FBF9F127
:101A500001E01F4900BF00BF1C480068C0F3031429
:101A600004A8055D21FA05F218480068C0F3822435
:101A700002A8055D22FA05F0099014480068C0F339
:101A800042341DF8045022FA05F0089036B1012EB8
:101A900006D0022E06D0032E0AD106E00A9108E0F5
:101AA0000A9206E009980A9003E008980A9000E07C
:101AB00000BF00BF0A980CB0BDE8F08F0000000026
:101AC000000000000102030406070809083802406C
:101AD0000024F40000127A00074A02EB9011D1F8BA
:101AE000001800F01F0301229A401143024B03EB40
:101AF0009012C2F80018704700300240074A02EB0B
:101B00009011D1F8001800F01F0301229A40914370
:101B1000024B03EB9012C2F80018704700300240ED
:101B2000074A02EB9011D1F8001800F01F030122C0
:101B30009A401143024B03EB9012C2F80018704711
:101B40000030024008B5062000906846FEF752FCBF
:101B500008BD08B5432000906846FEF74BFC08BD61
:101B600008B5182000906846FEF744FC08BD08B58B
:101B7000152000906846FEF73DFC08BD2DE9F041B8
:101B800094B005460E4617464FF00008002401A801
:101B9000FFF711FB8DF80A508DF80B600120ADF8AE
:101BA0000C000A2201A904A8FEF70AFB8DF81A709E
:101BB000032405E004A8005D404400F0FF08641C15
:101BC0000B2CF7DB8DF81B8023208DF81C000D22D9
:101BD00004A9034800F07CF914B0BDE8F0810000CE
:101BE00000500040002000213A4A126842F480323E
:101BF000384B1A6000BF401C364A126802F40031AC
:101C000019B94FF6FF729042F5D1324A126802F4C8
:101C100000320AB900BFFEE72E4A4032126842F095
:101C200080522C4B40331A602B4A126842F44042D7
:101C3000294B1A60274A08321268264B08331A606B
:101C40001A46126842F400421A601A46126842F4B8
:101C5000A0521A60214A1B1F1A601A1F126842F014
:101C600080721B1F1A6000BF1A4A126802F00072CD
:101C7000002AF9D0184A126842F48032164B1A60D2
:101C800000BF154A526802F48032002AF9D0124A85
:101C9000126842F40032104B1A6000BF0E4A5268BC
:101CA00002F40032002AF9D00A4A0832126822F0FF
:101CB0000302084B08331A601A46126842F0020207
:101CC0001A6000BF034A0832126802F00802002AB4
:101CD000F8D07047003802400070004008644009A6
:101CE00010B5FFF77FFF10BD10B5124800684FF424
:101CF0007A71B0FBF1F4601EB0F1807F01D3012056
:101D00000FE0601E4FF0E02148610F214FF0FF30DF
:101D1000FEF708FD00204FF0E021886107200861F0
:101D2000002008B100BFFEE70021481EFEF7FAFCC4
:101D300010BD000034000020016821F001010160A5
:101D40007047016841F00101016070470A888262B2
:101D50001D4A90420ED0B0F1804F0BD01B4A9042EA
:101D600008D01B4A904205D01A4A904202D01A4A23
:101D700090420BD1026822F07002026002684B8828
:101D80001A43026002688B881A4302608A68C26242
:101D9000124A90420AD0124A904207D0026822F4B6
:101DA000407202600268CB881A430260064A904281
:101DB00002D0094A904201D10A7B0263426942F093
:101DC0000102426170470000000001400004004031
:101DD00000080040000C00400004014000100040DA
:101DE00000140040C2680A43C2607047CA430261DF
:101DF00070470246D06800EA01031069084010B13C
:101E00000BB1012070470020FCE7000010B540F640
:101E10000340FFF761FE40F60240FFF75DFE41F22E
:101E20001400FFF759FE4FF4805208212548FFF7B0
:101E3000CFF9042208212448FFF7CAF94FF4805350
:101E4000012202211F48FFF74FFA4FF4805302226C
:101E500000211C48FFF76FFA0423012202211A48CF
:101E6000FFF742FA0423022200211748FFF763FA22
:101E7000164800F0B9FB4FF4E131144800F036FB8E
:101E80000021124800F081FC0021104800F09DFC68
:101E900000210E4800F089FC04210C4800F07DFC74
:101EA00008210A4800F089FC084800F010FC40F2C4
:101EB0000531064800F040FC002202213520FFF7E2
:101EC0000DFD10BD00080240000C02400050004013
:101ED0002DE9F04105460E4617460B48854210D1C4
:101EE00000240BE0315D084800F079FB00BF0721BA
:101EF000054800F0F1FB0028F9D0641CBC42F1D386
:101F000000BFBDE8F0810000005000402DE9F84F0F
:101F10000746062000904FF0000BDA4800780028B2
:101F20007ED0D94800880A287ADD0020D54908707B
:101F3000D64804880020D5490880D5490860214644
:101F4000D4A0FEF70BFD002506E0DC48415DDCA0D7
:101F5000FEF704FD681C85B2A542F6DBDAA0FEF7A9
:101F6000FDFCB4F5006F05DDD8A0FEF7F7FC0120FD
:101F7000BDE8F88F40F20A40844204D04FF0010BD4
:101F8000D7A0FEF7EBFC40F20A40844222DD002598
:101F90001DE0CA48405D7D2817D1C849681C085C0F
:101FA0000A2812D105F20940085C7B280DD10846A9
:101FB000411940F20A42FEF703F940F20A444FF099
:101FC000000BCBA0FEF7CAFC03E0681C85B2322DE3
:101FD000DFDB00BFB9480078AA280DD1B7484078A8
:101FE000AA2809D1C748006847F23051884201D376
:101FF000FEF770FF0320BBE70020C2490860AF482E
:1020000090F80704AD4991F8081440EA012840F21D
:102010000741AA48FEF75DF90646464508D000E0AC
:1020200021E14FF0010B42463146B7A0FEF796FC86
:10203000BBF1000F17D0BB480078401CB9490870AD
:10204000084600780A2806DDFFF78AFDB6A0FEF7ED
:1020500085FC01208CE7FFF78AFDB2480178C0A01B
:10206000FEF77CFCFDE00020AE49087093488078C4
:10207000072806D0082871D0092870D00A286FD107
:10208000C9E0BD480088401CBB4908800888C117CA
:1020900000EB91718910A0EB8101002977D0B6493E
:1020A0000888C11700EB91718910A0EB810101290B
:1020B00006D18A028149C91DB048FEF781F825E0A2
:1020C000AD490888C11700EB91718910A0EB81011F
:1020D000022906D14A027949C91DA948FEF770F8BC
:1020E00014E0A5490888C11700EB91718910A0EB95
:1020F0008101032907D14FF480627049C91DA148AD
:10210000FEF75EF802E0A0A0FEF728FC6B48C0785E
:102110006A490979884272D1684840796749897962
:1021200088426CD194490888C11700EB91718910DD
:10213000A0EB8101012914D1FF2289029048FEF70A
:1021400051F8FF224FF480618E48FEF74BF8FF22D2
:102150004FF480619348FEF745F82DE057E070E0BA
:1021600078E085490888C11700EB91718910A0EBD0
:10217000810102290CD1FF2249028248FEF732F880
:10218000FF224FF480618748FEF72CF814E021E02D
:1021900079490888C11700EB91718910A0EB810182
:1021A000032906D1FF224FF480617E48FEF71AF81A
:1021B00002E07DA0FEF7D2FB6F490D88E91705EB21
:1021C0009171891007EB01304FF480626B49FEF783
:1021D000C9FF14E04FF480623849C91D7148FDF70A
:1021E000EFFF65490D88E91705EB91718910491ECC
:1021F00007EB01304FF480626049FEF7B3FF5E48A1
:10220000018871A0FEF7AAFBFFF79CFC28E0FFF70E
:1022100099FC0120ACE62948C0792849097A40EAAE
:10222000012AFEF77FF88146524649466AA0FEF72A
:1022300095FBCA4502D1012071490870FFF782FC65
:102240000EE0FFF77FFC6E48007808B102208FE6B1
:1022500001208DE6FFF78BFC6AA0FEF77FFB00BF35
:1022600000BF032084E60A48006847F230518842E4
:1022700006D9FFF775FC68A0FEF770FB002077E633
:1022800000BF75E62200002018000020200000207A
:10229000240000202072656365697665642075708E
:1022A0006772616465206461746173206E756D622C
:1022B0006572203A202564200D0A00003C1200209F
:1022C0002030782578000000200D0A006C656E67CC
:1022D000746820746F6F206C6F6E67210D0A0000A8
:1022E0006C656E677468206572726F72210D0A00EA
:1022F0006C656E67746820636F7272656374210D1C
:102300000A0000002C000020637263206572726F67
:10231000722163616C3A256420726563763A2564A4
:102320000D0A00002300002073656E64206E636B4D
:10233000206E756D626572206D6F726520746861C4
:102340006E2031302074696D65732C206661696C74
:102350007572652075706461746520210D0A000036
:1023600073656E64206E616B207265717565737440
:10237000202564210D0A0000280000203C1A0020BE
:102380003C1E00203C220020726563656976652052
:102390007061636B206E756D206572726F72200DB7
:1023A0000A0000003C260020656E642072656365AB
:1023B000697665207061636B206E756D2065727241
:1023C0006F72200D0A0000007061636B6E756D3ACC
:1023D00025640D0A0000000063616C5F666C617328
:1023E000685F6372633A25642C726563765F666C1E
:1023F0006173685F6372633A25640D0A0000000030
:102400002A00002064656661756C742073656E64D3
:10241000206E616B200D0A003330732074696D6586
:102420006F7574210D0A000010B540F60140FFF7EA
:1024300053FB41F21200FFF74FFB4FF4806207217C
:102440002848FEF7C5FE4FF4006207212548FEF735
:10245000BFFE4FF48063012202212248FEF744FFB1
:102460004FF48063022200211E48FEF764FF4FF400
:102470000063012202211B48FEF736FF4FF4006380
:10248000022200211748FEF756FF174800F0ACF86B
:102490004FF4E131144800F029F80021124800F00F
:1024A00094F90021104800F080F900210E4800F056
:1024B0006CF900210C4800F028F900210A4800F0CE
:1024C0001AF90421084800F068F90821064800F0CC
:1024D00074F9054800F0FBF840F20531024800F0BD
:1024E0002BF910BD00040240004800402DE9F047E0
:1024F00004460D460027B846B94600263349601AFF
:102500008C4235D00CDC32482044E8B1B0F5806F05
:102510001FD0B0F5006F21D0B0F5406F32D122E06E
:10252000B0F5806F29D0B0F5184F03D0B0F51C4F2F
:1025300028D104E00320FFF73DFA074623E00320FB
:10254000FFF738FA07461EE00220FFF733FA074686
:1025500019E00220FFF72EFA074614E00220FFF7E9
:1025600029FA07460FE00220FFF724FA07460AE09F
:102570000220FFF71FFA074605E00220FFF71AFACC
:10258000074600E000BF00BFE06800F4004070B103
:10259000780000EB5500B0FBF5F64FF6F07006EA58
:1025A0000008C6F3420948EA0900A0600CE007EB06
:1025B0005500B0FBF5F64FF6F07006EA000806F09D
:1025C0000F0948EA0900A060BDE8F08700780040E4
:1025D00000BCFFBF01464868C0F308007047C1F364
:1025E000080242607047000010B504463349601A83
:1025F0008C424DD00CDC32482044E0B1B0F5806F05
:1026000022D0B0F5006F31D0B0F5406F52D136E036
:10261000B0F5806F45D0B0F5184F03D0B0F51C4F22
:1026200048D11AE040F60410FFF77AFA40F6041099
:10263000FFF764FA3FE040F61100FFF771FA40F649
:102640001100FFF75BFA36E040F61200FFF768FA78
:1026500040F61200FFF752FA2DE040F60510FFF7A2
:102660005FFA40F60510FFF749FA24E040F6130040
:10267000FFF756FA40F61300FFF740FA1BE040F66A
:102680001400FFF74DFA40F61400FFF737FA12E096
:1026900040F61E00FFF744FA40F61E00FFF72EFA40
:1026A00009E040F61F00FFF73BFA40F61F00FFF776
:1026B00025FA00E000BF00BF10BD00000078004018
:1026C00000BCFFBFC16821F40051C1607047C16800
:1026D00041F40051C160704710B5024602EB911001
:1026E000006801F01F040123A340184008B1012035
:1026F00010BD0020FCE7426922F400724261426989
:1027000001F400731A4342617047426922F48072F7
:102710004261426901F480731A434261704710B507
:1027200000EB9112126801F01F040123A3409A43A9
:1027300000EB91131A6010BD10B500EB91121268F6
:1027400001F01F040123A3401A4300EB91131A6008
:1027500010BD70B5024600230024C1F38910105843
:1027600001F01F060125B54000EA050302EB915078
:102770000068C1F304460125B54000EA050414B120
:102780000BB1012070BD0020FCE7C26822F4C062DA
:10279000C260C2680A43C26070470A460021C1682D
:1027A00021F004011143C1607047026922F44052D4
:1027B000026102690A43026170470A460021C1684A
:1027C00021F008011143C1607047C26822F48052B1
:1027D000C260C2680A43C2607047000021104220F4
:1027E00063308440A550C660E770088129914AA1F2
:1027F0006BB18CC1ADD1CEE1EFF131121002733269
:102800005222B5529442F772D662399318837BB341
:102810005AA3BDD39CC3FFF3DEE3622443342004F8
:102820000114E664C774A44485546AA54BB5288591
:102830000995EEE5CFF5ACC58DD553367226111648
:102840003006D776F6669556B4465BB77AA71997E1
:102850003887DFF7FEE79DD7BCC7C448E5588668D0
:10286000A7784008611802282338CCC9EDD98EE931
:10287000AFF9488969990AA92BB9F55AD44AB77AA8
:10288000966A711A500A333A122AFDDBDCCBBFFB81
:102890009EEB799B588B3BBB1AABA66C877CE44CB8
:1028A000C55C222C033C600C411CAEED8FFDECCDD1
:1028B000CDDD2AAD0BBD688D499D977EB66ED55E88
:1028C000F44E133E322E511E700E9FFFBEEFDDDF21
:1028D000FCCF1BBF3AAF599F788F8891A981CAB1AD
:1028E000EBA10CD12DC14EF16FE18010A100C230DF
:1028F000E3200450254046706760B9839893FBA39A
:10290000DAB33DC31CD37FE35EF3B1029012F3222E
:10291000D2323542145277625672EAB5CBA5A895E9
:1029200089856EF54FE52CD50DC5E234C324A0147E
:1029300081046674476424540544DBA7FAB7998779
:10294000B8975FE77EF71DC73CD7D326F2369106CE
:10295000B01657667676154634564CD96DC90EF9C1
:102960002FE9C899E9898AB9ABA94458654806781E
:102970002768C018E1088238A3287DCB5CDB3FEBD9
:102980001EFBF98BD89BBBAB9ABB754A545A376A6E
:10299000167AF10AD01AB32A923A2EFD0FED6CDDA9
:1029A0004DCDAABD8BADE89DC98D267C076C645CBE
:1029B000454CA23C832CE01CC10C1FEF3EFF5DCFB9
:1029C0007CDF9BAFBABFD98FF89F176E367E554E0E
:1029D000745E932EB23ED10EF01E6170705F626124
:1029E000636B75705F636F70790000000C2A0008DC
:1029F000000000203C0000007C090008482A000874
:102A00003C000020042E00008C090008000000009B
:102A100000000000000000000002000000000000B4
:102A200000000000000000000000000000000000A6
:102A30000000000000000000000000000100000095
:082A400000C2EB0B00000000D6
:040000050800018965
:00000001FF
