Component: ARM Compiler 5.06 update 4 (build 422) Tool: armlink [4d35d2]

==============================================================================

Section Cross References

    main.o(i.CCITT_Flash) refers to printf8.o(i.__0printf$8) for __2printf
    main.o(i.CCITT_Flash) refers to main.o(i.gd32_flash_read) for gd32_flash_read
    main.o(i.CCITT_Flash) refers to main.o(.constdata) for ccitt_table
    main.o(i.FLASH_ErasePage) refers to gd32f4xx_fmc.o(i.fmc_flag_clear) for fmc_flag_clear
    main.o(i.FLASH_ErasePage) refers to gd32f4xx_fmc.o(i.fmc_page_erase) for fmc_page_erase
    main.o(i.FLASH_Write) refers to gd32f4xx_fmc.o(i.fmc_unlock) for fmc_unlock
    main.o(i.FLASH_Write) refers to main.o(i.FLASH_Read) for FLASH_Read
    main.o(i.FLASH_Write) refers to main.o(i.FLASH_ErasePage) for FLASH_ErasePage
    main.o(i.FLASH_Write) refers to main.o(i.FLASH_WriteNotErase) for FLASH_WriteNotErase
    main.o(i.FLASH_Write) refers to gd32f4xx_fmc.o(i.fmc_lock) for fmc_lock
    main.o(i.FLASH_Write) refers to main.o(.bss) for FlashBuffer
    main.o(i.FLASH_WriteNotErase) refers to gd32f4xx_fmc.o(i.fmc_halfword_program) for fmc_halfword_program
    main.o(i.NVIC_config) refers to gd32f4xx_misc.o(i.nvic_priority_group_set) for nvic_priority_group_set
    main.o(i.NVIC_config) refers to gd32f4xx_misc.o(i.nvic_irq_enable) for nvic_irq_enable
    main.o(i.Time_init) refers to gd32f4xx_rcu.o(i.rcu_periph_clock_enable) for rcu_periph_clock_enable
    main.o(i.Time_init) refers to gd32f4xx_timer.o(i.timer_init) for timer_init
    main.o(i.Time_init) refers to gd32f4xx_timer.o(i.timer_interrupt_enable) for timer_interrupt_enable
    main.o(i.Time_init) refers to gd32f4xx_timer.o(i.timer_enable) for timer_enable
==============================================================================

Removing Unused input sections from the image.

    Removing main.o(.rev16_text), (4 bytes).
    Removing main.o(.revsh_text), (4 bytes).
    Removing main.o(i.fmc_read_8bit_data), (24 bytes).
    Removing main.o(i.gd_check_sum), (52 bytes).
    Removing gd32f4xx_it.o(.rev16_text), (4 bytes).
    Removing gd32f4xx_it.o(.revsh_text), (4 bytes).
    Removing systick.o(.rev16_text), (4 bytes).
    Removing systick.o(.revsh_text), (4 bytes).
    Removing serial.o(.rev16_text), (4 bytes).
    Removing serial.o(.revsh_text), (4 bytes).
    Removing system_gd32f4xx.o(.rev16_text), (4 bytes).
    Removing system_gd32f4xx.o(.revsh_text), (4 bytes).
    Removing system_gd32f4xx.o(i.SystemCoreClockUpdate), (272 bytes).
    Removing gd32f4xx_adc.o(.rev16_text), (4 bytes).
    Removing gd32f4xx_adc.o(.revsh_text), (4 bytes).
    Removing gd32f4xx_adc.o(i.adc_calibration_enable), (42 bytes).
    Removing gd32f4xx_adc.o(i.adc_channel_16_to_18), (96 bytes).
    Removing gd32f4xx_adc.o(i.adc_channel_length_config), (82 bytes).
==============================================================================

Image Symbol Table

    Local Symbols

    Symbol Name                              Value     Ov Type        Size  Object(Section)

    ../clib/microlib/division.c              0x00000000   Number         0  uldiv.o ABSOLUTE
    ../clib/microlib/division.c              0x00000000   Number         0  uidiv.o ABSOLUTE
    ../clib/microlib/init/entry.s            0x00000000   Number         0  entry9a.o ABSOLUTE
    ../clib/microlib/init/entry.s            0x00000000   Number         0  entry8b.o ABSOLUTE
    ../clib/microlib/init/entry.s            0x00000000   Number         0  entry8a.o ABSOLUTE
    ../clib/microlib/init/entry.s            0x00000000   Number         0  entry2.o ABSOLUTE
    ../clib/microlib/init/entry.s            0x00000000   Number         0  entry7b.o ABSOLUTE
    ../clib/microlib/init/entry.s            0x00000000   Number         0  entry7a.o ABSOLUTE
    ../clib/microlib/init/entry.s            0x00000000   Number         0  entry11b.o ABSOLUTE
    ../clib/microlib/init/entry.s            0x00000000   Number         0  entry5.o ABSOLUTE
    ../clib/microlib/init/entry.s            0x00000000   Number         0  entry11a.o ABSOLUTE
    ../clib/microlib/init/entry.s            0x00000000   Number         0  entry10b.o ABSOLUTE
    ../clib/microlib/init/entry.s            0x00000000   Number         0  entry.o ABSOLUTE
    ../clib/microlib/init/entry.s            0x00000000   Number         0  entry10a.o ABSOLUTE
    ../clib/microlib/init/entry.s            0x00000000   Number         0  entry9b.o ABSOLUTE
    ../clib/microlib/longlong.c              0x00000000   Number         0  llushr.o ABSOLUTE
    ../clib/microlib/longlong.c              0x00000000   Number         0  llshl.o ABSOLUTE
    ../clib/microlib/longlong.c              0x00000000   Number         0  llsshr.o ABSOLUTE
    ../clib/microlib/printf/printf.c         0x00000000   Number         0  printfb.o ABSOLUTE
    ../clib/microlib/printf/printf.c         0x00000000   Number         0  printf5.o ABSOLUTE
    ../clib/microlib/printf/printf.c         0x00000000   Number         0  printf4.o ABSOLUTE
    ../clib/microlib/printf/printf.c         0x00000000   Number         0  printf3.o ABSOLUTE
    ../clib/microlib/printf/printf.c         0x00000000   Number         0  printf2.o ABSOLUTE
    ../clib/microlib/printf/printf.c         0x00000000   Number         0  printf1.o ABSOLUTE
    ../clib/microlib/printf/printf.c         0x00000000   Number         0  printfa.o ABSOLUTE
    ../clib/microlib/printf/printf.c         0x00000000   Number         0  printf6.o ABSOLUTE
    ../clib/microlib/printf/printf.c         0x00000000   Number         0  printf0.o ABSOLUTE
    ../clib/microlib/printf/printf.c         0x00000000   Number         0  printf8.o ABSOLUTE
    ../clib/microlib/printf/printf.c         0x00000000   Number         0  printf7.o ABSOLUTE
    ../clib/microlib/printf/stubs.s          0x00000000   Number         0  stubs.o ABSOLUTE
    ../clib/microlib/stdio/streams.c         0x00000000   Number         0  stdout.o ABSOLUTE
    ../clib/microlib/string/memcpy.c         0x00000000   Number         0  memcpya.o ABSOLUTE
    ../clib/microlib/string/memcpy.c         0x00000000   Number         0  memcpyb.o ABSOLUTE
    ../clib/microlib/string/memset.c         0x00000000   Number         0  memseta.o ABSOLUTE
    ../clib/microlib/stubs.s                 0x00000000   Number         0  iusefp.o ABSOLUTE
    ../fplib/microlib/fpadd.c                0x00000000   Number         0  dadd.o ABSOLUTE
    ../fplib/microlib/fpdiv.c                0x00000000   Number         0  ddiv.o ABSOLUTE
    ../fplib/microlib/fpepilogue.c           0x00000000   Number         0  depilogue.o ABSOLUTE
    ../fplib/microlib/fpfix.c                0x00000000   Number         0  dfixul.o ABSOLUTE
    ../fplib/microlib/fpmul.c                0x00000000   Number         0  dmul.o ABSOLUTE
    ..\..\..\..\GD32F4xx_Firmware_Library\CMSIS\GD\GD32F4xx\Source\ARM\startup_gd32f407_427.s 0x00000000   Number         0  startup_gd32f407_427.o ABSOLUTE
    ..\..\..\..\GD32F4xx_Firmware_Library\CMSIS\GD\GD32F4xx\Source\system_gd32f4xx.c 0x00000000   Number         0  system_gd32f4xx.o ABSOLUTE
    ..\..\..\..\GD32F4xx_Firmware_Library\GD32F4xx_standard_peripheral\Source\gd32f4xx_adc.c 0x00000000   Number         0  gd32f4xx_adc.o ABSOLUTE
    ..\..\..\..\GD32F4xx_Firmware_Library\GD32F4xx_standard_peripheral\Source\gd32f4xx_can.c 0x00000000   Number         0  gd32f4xx_can.o ABSOLUTE
    ..\..\..\..\GD32F4xx_Firmware_Library\GD32F4xx_standard_peripheral\Source\gd32f4xx_crc.c 0x00000000   Number         0  gd32f4xx_crc.o ABSOLUTE
    ..\..\..\..\GD32F4xx_Firmware_Library\GD32F4xx_standard_peripheral\Source\gd32f4xx_ctc.c 0x00000000   Number         0  gd32f4xx_ctc.o ABSOLUTE
    ..\..\..\..\GD32F4xx_Firmware_Library\GD32F4xx_standard_peripheral\Source\gd32f4xx_dac.c 0x00000000   Number         0  gd32f4xx_dac.o ABSOLUTE
    ..\..\..\..\GD32F4xx_Firmware_Library\GD32F4xx_standard_peripheral\Source\gd32f4xx_dbg.c 0x00000000   Number         0  gd32f4xx_dbg.o ABSOLUTE
    ..\..\..\..\GD32F4xx_Firmware_Library\GD32F4xx_standard_peripheral\Source\gd32f4xx_dci.c 0x00000000   Number         0  gd32f4xx_dci.o ABSOLUTE
    ..\..\..\..\GD32F4xx_Firmware_Library\GD32F4xx_standard_peripheral\Source\gd32f4xx_dma.c 0x00000000   Number         0  gd32f4xx_dma.o ABSOLUTE
    ..\..\..\..\GD32F4xx_Firmware_Library\GD32F4xx_standard_peripheral\Source\gd32f4xx_enet.c 0x00000000   Number         0  gd32f4xx_enet.o ABSOLUTE
    ..\..\..\..\GD32F4xx_Firmware_Library\GD32F4xx_standard_peripheral\Source\gd32f4xx_exmc.c 0x00000000   Number         0  gd32f4xx_exmc.o ABSOLUTE
    ..\..\..\..\GD32F4xx_Firmware_Library\GD32F4xx_standard_peripheral\Source\gd32f4xx_exti.c 0x00000000   Number         0  gd32f4xx_exti.o ABSOLUTE
    ..\..\..\..\GD32F4xx_Firmware_Library\GD32F4xx_standard_peripheral\Source\gd32f4xx_fmc.c 0x00000000   Number         0  gd32f4xx_fmc.o ABSOLUTE
    ..\..\..\..\GD32F4xx_Firmware_Library\GD32F4xx_standard_peripheral\Source\gd32f4xx_fwdgt.c 0x00000000   Number         0  gd32f4xx_fwdgt.o ABSOLUTE
    ..\..\..\..\GD32F4xx_Firmware_Library\GD32F4xx_standard_peripheral\Source\gd32f4xx_gpio.c 0x00000000   Number         0  gd32f4xx_gpio.o ABSOLUTE
    ..\..\..\..\GD32F4xx_Firmware_Library\GD32F4xx_standard_peripheral\Source\gd32f4xx_i2c.c 0x00000000   Number         0  gd32f4xx_i2c.o ABSOLUTE
    ..\..\..\..\GD32F4xx_Firmware_Library\GD32F4xx_standard_peripheral\Source\gd32f4xx_ipa.c 0x00000000   Number         0  gd32f4xx_ipa.o ABSOLUTE
    ..\..\..\..\GD32F4xx_Firmware_Library\GD32F4xx_standard_peripheral\Source\gd32f4xx_iref.c 0x00000000   Number         0  gd32f4xx_iref.o ABSOLUTE
    ..\..\..\..\GD32F4xx_Firmware_Library\GD32F4xx_standard_peripheral\Source\gd32f4xx_misc.c 0x00000000   Number         0  gd32f4xx_misc.o ABSOLUTE
    ..\..\..\..\GD32F4xx_Firmware_Library\GD32F4xx_standard_peripheral\Source\gd32f4xx_pmu.c 0x00000000   Number         0  gd32f4xx_pmu.o ABSOLUTE
    ..\..\..\..\GD32F4xx_Firmware_Library\GD32F4xx_standard_peripheral\Source\gd32f4xx_rcu.c 0x00000000   Number         0  gd32f4xx_rcu.o ABSOLUTE
    ..\..\..\..\GD32F4xx_Firmware_Library\GD32F4xx_standard_peripheral\Source\gd32f4xx_rtc.c 0x00000000   Number         0  gd32f4xx_rtc.o ABSOLUTE
    ..\..\..\..\GD32F4xx_Firmware_Library\GD32F4xx_standard_peripheral\Source\gd32f4xx_sdio.c 0x00000000   Number         0  gd32f4xx_sdio.o ABSOLUTE
    ..\..\..\..\GD32F4xx_Firmware_Library\GD32F4xx_standard_peripheral\Source\gd32f4xx_spi.c 0x00000000   Number         0  gd32f4xx_spi.o ABSOLUTE
    ..\..\..\..\GD32F4xx_Firmware_Library\GD32F4xx_standard_peripheral\Source\gd32f4xx_syscfg.c 0x00000000   Number         0  gd32f4xx_syscfg.o ABSOLUTE
    ..\..\..\..\GD32F4xx_Firmware_Library\GD32F4xx_standard_peripheral\Source\gd32f4xx_timer.c 0x00000000   Number         0  gd32f4xx_timer.o ABSOLUTE
    ..\..\..\..\GD32F4xx_Firmware_Library\GD32F4xx_standard_peripheral\Source\gd32f4xx_tli.c 0x00000000   Number         0  gd32f4xx_tli.o ABSOLUTE
    ..\..\..\..\GD32F4xx_Firmware_Library\GD32F4xx_standard_peripheral\Source\gd32f4xx_trng.c 0x00000000   Number         0  gd32f4xx_trng.o ABSOLUTE
    ..\..\..\..\GD32F4xx_Firmware_Library\GD32F4xx_standard_peripheral\Source\gd32f4xx_usart.c 0x00000000   Number         0  gd32f4xx_usart.o ABSOLUTE
    ..\..\..\..\GD32F4xx_Firmware_Library\GD32F4xx_standard_peripheral\Source\gd32f4xx_wwdgt.c 0x00000000   Number         0  gd32f4xx_wwdgt.o ABSOLUTE
    ..\..\..\Utilities\gd32f427v_start.c     0x00000000   Number         0  gd32f427v_start.o ABSOLUTE
    ..\\..\\..\\..\\GD32F4xx_Firmware_Library\\CMSIS\\GD\\GD32F4xx\\Source\\system_gd32f4xx.c 0x00000000   Number         0  system_gd32f4xx.o ABSOLUTE
    ..\\..\\..\\..\\GD32F4xx_Firmware_Library\\GD32F4xx_standard_peripheral\\Source\\gd32f4xx_adc.c 0x00000000   Number         0  gd32f4xx_adc.o ABSOLUTE
    ..\\..\\..\\..\\GD32F4xx_Firmware_Library\\GD32F4xx_standard_peripheral\\Source\\gd32f4xx_can.c 0x00000000   Number         0  gd32f4xx_can.o ABSOLUTE
    ..\\..\\..\\..\\GD32F4xx_Firmware_Library\\GD32F4xx_standard_peripheral\\Source\\gd32f4xx_crc.c 0x00000000   Number         0  gd32f4xx_crc.o ABSOLUTE
    ..\\..\\..\\..\\GD32F4xx_Firmware_Library\\GD32F4xx_standard_peripheral\\Source\\gd32f4xx_ctc.c 0x00000000   Number         0  gd32f4xx_ctc.o ABSOLUTE
    ..\\..\\..\\..\\GD32F4xx_Firmware_Library\\GD32F4xx_standard_peripheral\\Source\\gd32f4xx_dac.c 0x00000000   Number         0  gd32f4xx_dac.o ABSOLUTE
    ..\\..\\..\\..\\GD32F4xx_Firmware_Library\\GD32F4xx_standard_peripheral\\Source\\gd32f4xx_dbg.c 0x00000000   Number         0  gd32f4xx_dbg.o ABSOLUTE
    ..\\..\\..\\..\\GD32F4xx_Firmware_Library\\GD32F4xx_standard_peripheral\\Source\\gd32f4xx_dci.c 0x00000000   Number         0  gd32f4xx_dci.o ABSOLUTE
    ..\\..\\..\\..\\GD32F4xx_Firmware_Library\\GD32F4xx_standard_peripheral\\Source\\gd32f4xx_dma.c 0x00000000   Number         0  gd32f4xx_dma.o ABSOLUTE
    ..\\..\\..\\..\\GD32F4xx_Firmware_Library\\GD32F4xx_standard_peripheral\\Source\\gd32f4xx_enet.c 0x00000000   Number         0  gd32f4xx_enet.o ABSOLUTE
    ..\\..\\..\\..\\GD32F4xx_Firmware_Library\\GD32F4xx_standard_peripheral\\Source\\gd32f4xx_exmc.c 0x00000000   Number         0  gd32f4xx_exmc.o ABSOLUTE
    ..\\..\\..\\..\\GD32F4xx_Firmware_Library\\GD32F4xx_standard_peripheral\\Source\\gd32f4xx_exti.c 0x00000000   Number         0  gd32f4xx_exti.o ABSOLUTE
    ..\\..\\..\\..\\GD32F4xx_Firmware_Library\\GD32F4xx_standard_peripheral\\Source\\gd32f4xx_fmc.c 0x00000000   Number         0  gd32f4xx_fmc.o ABSOLUTE
    ..\\..\\..\\..\\GD32F4xx_Firmware_Library\\GD32F4xx_standard_peripheral\\Source\\gd32f4xx_fwdgt.c 0x00000000   Number         0  gd32f4xx_fwdgt.o ABSOLUTE
    ..\\..\\..\\..\\GD32F4xx_Firmware_Library\\GD32F4xx_standard_peripheral\\Source\\gd32f4xx_gpio.c 0x00000000   Number         0  gd32f4xx_gpio.o ABSOLUTE
    ..\\..\\..\\..\\GD32F4xx_Firmware_Library\\GD32F4xx_standard_peripheral\\Source\\gd32f4xx_i2c.c 0x00000000   Number         0  gd32f4xx_i2c.o ABSOLUTE
    ..\\..\\..\\..\\GD32F4xx_Firmware_Library\\GD32F4xx_standard_peripheral\\Source\\gd32f4xx_ipa.c 0x00000000   Number         0  gd32f4xx_ipa.o ABSOLUTE
    ..\\..\\..\\..\\GD32F4xx_Firmware_Library\\GD32F4xx_standard_peripheral\\Source\\gd32f4xx_iref.c 0x00000000   Number         0  gd32f4xx_iref.o ABSOLUTE
    ..\\..\\..\\..\\GD32F4xx_Firmware_Library\\GD32F4xx_standard_peripheral\\Source\\gd32f4xx_misc.c 0x00000000   Number         0  gd32f4xx_misc.o ABSOLUTE
    ..\\..\\..\\..\\GD32F4xx_Firmware_Library\\GD32F4xx_standard_peripheral\\Source\\gd32f4xx_pmu.c 0x00000000   Number         0  gd32f4xx_pmu.o ABSOLUTE
    ..\\..\\..\\..\\GD32F4xx_Firmware_Library\\GD32F4xx_standard_peripheral\\Source\\gd32f4xx_rcu.c 0x00000000   Number         0  gd32f4xx_rcu.o ABSOLUTE
    ..\\..\\..\\..\\GD32F4xx_Firmware_Library\\GD32F4xx_standard_peripheral\\Source\\gd32f4xx_rtc.c 0x00000000   Number         0  gd32f4xx_rtc.o ABSOLUTE
    ..\\..\\..\\..\\GD32F4xx_Firmware_Library\\GD32F4xx_standard_peripheral\\Source\\gd32f4xx_sdio.c 0x00000000   Number         0  gd32f4xx_sdio.o ABSOLUTE
    ..\\..\\..\\..\\GD32F4xx_Firmware_Library\\GD32F4xx_standard_peripheral\\Source\\gd32f4xx_spi.c 0x00000000   Number         0  gd32f4xx_spi.o ABSOLUTE
    ..\\..\\..\\..\\GD32F4xx_Firmware_Library\\GD32F4xx_standard_peripheral\\Source\\gd32f4xx_syscfg.c 0x00000000   Number         0  gd32f4xx_syscfg.o ABSOLUTE
    ..\\..\\..\\..\\GD32F4xx_Firmware_Library\\GD32F4xx_standard_peripheral\\Source\\gd32f4xx_timer.c 0x00000000   Number         0  gd32f4xx_timer.o ABSOLUTE
    ..\\..\\..\\..\\GD32F4xx_Firmware_Library\\GD32F4xx_standard_peripheral\\Source\\gd32f4xx_tli.c 0x00000000   Number         0  gd32f4xx_tli.o ABSOLUTE
    ..\\..\\..\\..\\GD32F4xx_Firmware_Library\\GD32F4xx_standard_peripheral\\Source\\gd32f4xx_trng.c 0x00000000   Number         0  gd32f4xx_trng.o ABSOLUTE
    ..\\..\\..\\..\\GD32F4xx_Firmware_Library\\GD32F4xx_standard_peripheral\\Source\\gd32f4xx_usart.c 0x00000000   Number         0  gd32f4xx_usart.o ABSOLUTE
    ..\\..\\..\\..\\GD32F4xx_Firmware_Library\\GD32F4xx_standard_peripheral\\Source\\gd32f4xx_wwdgt.c 0x00000000   Number         0  gd32f4xx_wwdgt.o ABSOLUTE
    ..\\..\\..\\Utilities\\gd32f427v_start.c 0x00000000   Number         0  gd32f427v_start.o ABSOLUTE
    ..\\gd32f4xx_it.c                        0x00000000   Number         0  gd32f4xx_it.o ABSOLUTE
    ..\\main.c                               0x00000000   Number         0  main.o ABSOLUTE
    ..\\serial.c                             0x00000000   Number         0  serial.o ABSOLUTE
    ..\\systick.c                            0x00000000   Number         0  systick.o ABSOLUTE
    ..\gd32f4xx_it.c                         0x00000000   Number         0  gd32f4xx_it.o ABSOLUTE
    ..\main.c                                0x00000000   Number         0  main.o ABSOLUTE
    ..\serial.c                              0x00000000   Number         0  serial.o ABSOLUTE
    ..\systick.c                             0x00000000   Number         0  systick.o ABSOLUTE
    cdrcmple.s                               0x00000000   Number         0  cdrcmple.o ABSOLUTE
    dc.s                                     0x00000000   Number         0  dc.o ABSOLUTE
    handlers.s                               0x00000000   Number         0  handlers.o ABSOLUTE
    init.s                                   0x00000000   Number         0  init.o ABSOLUTE
    RESET                                    0x08000000   Section      392  startup_gd32f407_427.o(RESET)
    .ARM.Collect$$$$00000000                 0x08000188   Section        0  entry.o(.ARM.Collect$$$$00000000)
    .ARM.Collect$$$$00000001                 0x08000188   Section        4  entry2.o(.ARM.Collect$$$$00000001)
    .ARM.Collect$$$$00000004                 0x0800018c   Section        4  entry5.o(.ARM.Collect$$$$00000004)
    .ARM.Collect$$$$00000008                 0x08000190   Section        0  entry7b.o(.ARM.Collect$$$$00000008)
    .ARM.Collect$$$$0000000A                 0x08000190   Section        0  entry8b.o(.ARM.Collect$$$$0000000A)
    .ARM.Collect$$$$0000000B                 0x08000190   Section        8  entry9a.o(.ARM.Collect$$$$0000000B)
    .ARM.Collect$$$$0000000D                 0x08000198   Section        0  entry10a.o(.ARM.Collect$$$$0000000D)
    .ARM.Collect$$$$0000000F                 0x08000198   Section        0  entry11a.o(.ARM.Collect$$$$0000000F)
    .ARM.Collect$$$$00002712                 0x08000198   Section        4  entry2.o(.ARM.Collect$$$$00002712)
    __lit__00000000                          0x08000198   Data           4  entry2.o(.ARM.Collect$$$$00002712)
    .text                                    0x0800019c   Section       36  startup_gd32f407_427.o(.text)
    $v0                                      0x0800019c   Number         0  startup_gd32f407_427.o(.text)
    .text                                    0x080001c0   Section        0  memcpya.o(.text)
    .text                                    0x080001e4   Section        0  memseta.o(.text)
    .text                                    0x08000208   Section        0  uldiv.o(.text)
    .text                                    0x0800026c   Section       36  init.o(.text)
    .text                                    0x08000290   Section        0  llshl.o(.text)
    .text                                    0x080002ae   Section        0  llushr.o(.text)
    i.BusFault_Handler                       0x080002ce   Section        0  gd32f4xx_it.o(i.BusFault_Handler)
    i.CCITT                                  0x080002d2   Section        0  serial.o(i.CCITT)
    i.CCITT_Flash                            0x08000324   Section        0  main.o(i.CCITT_Flash)
    i.ComTxTask                              0x080003f4   Section        0  serial.o(i.ComTxTask)
    i.DebugMon_Handler                       0x080004b0   Section        0  gd32f4xx_it.o(i.DebugMon_Handler)
    i.FLASH_ErasePage                        0x080004b2   Section        0  main.o(i.FLASH_ErasePage)
    i.FLASH_Read                             0x080004e0   Section        0  main.o(i.FLASH_Read)
    i.FLASH_Write                            0x08000534   Section        0  main.o(i.FLASH_Write)
    i.FLASH_WriteNotErase                    0x08000684   Section        0  main.o(i.FLASH_WriteNotErase)
    i.FlashErase                             0x080006c4   Section        0  serial.o(i.FlashErase)
    i.HardFault_Handler                      0x08000718   Section        0  gd32f4xx_it.o(i.HardFault_Handler)
    i.MemManage_Handler                      0x0800071c   Section        0  gd32f4xx_it.o(i.MemManage_Handler)
    i.NMI_Handler                            0x08000720   Section        0  gd32f4xx_it.o(i.NMI_Handler)
    i.NVIC_SetPriority                       0x08000724   Section        0  systick.o(i.NVIC_SetPriority)
    NVIC_SetPriority                         0x08000725   Thumb Code    32  systick.o(i.NVIC_SetPriority)
    i.NVIC_SystemReset                       0x0800074c   Section        0  main.o(i.NVIC_SystemReset)
    NVIC_SystemReset                         0x0800074d   Thumb Code    30  main.o(i.NVIC_SystemReset)
    i.NVIC_config                            0x08000774   Section        0  main.o(i.NVIC_config)
    i.PendSV_Handler                         0x0800078a   Section        0  gd32f4xx_it.o(i.PendSV_Handler)
    i.SVC_Handler                            0x0800078c   Section        0  gd32f4xx_it.o(i.SVC_Handler)
    i.SysTick_Handler                        0x0800078e   Section        0  gd32f4xx_it.o(i.SysTick_Handler)
    i.SystemInit                             0x08000798   Section        0  system_gd32f4xx.o(i.SystemInit)
    i.TIMER4_IRQHandler                      0x0800086c   Section        0  gd32f4xx_it.o(i.TIMER4_IRQHandler)
    i.Time_init                              0x080008b4   Section        0  main.o(i.Time_init)
    i.UART4_IRQHandler                       0x080008f8   Section        0  serial.o(i.UART4_IRQHandler)
    i.UsageFault_Handler                     0x08000958   Section        0  gd32f4xx_it.o(i.UsageFault_Handler)
    i.__0printf$8                            0x0800095c   Section        0  printf8.o(i.__0printf$8)
    i.__scatterload_copy                     0x0800097c   Section       14  handlers.o(i.__scatterload_copy)
    i.__scatterload_null                     0x0800098a   Section        2  handlers.o(i.__scatterload_null)
    i.__scatterload_zeroinit                 0x0800098c   Section       14  handlers.o(i.__scatterload_zeroinit)
    i._printf_core                           0x0800099c   Section        0  printf8.o(i._printf_core)
    _printf_core                             0x0800099d   Thumb Code   996  printf8.o(i._printf_core)
    i._printf_post_padding                   0x08000dac   Section        0  printf8.o(i._printf_post_padding)
    _printf_post_padding                     0x08000dad   Thumb Code    36  printf8.o(i._printf_post_padding)
    i._printf_pre_padding                    0x08000dd0   Section        0  printf8.o(i._printf_pre_padding)
    _printf_pre_padding                      0x08000dd1   Thumb Code    46  printf8.o(i._printf_pre_padding)
    i.app_backup_copy                        0x08000e00   Section        0  main.o(i.app_backup_copy)
    i.boot_reset_num_reset                   0x08000e90   Section        0  main.o(i.boot_reset_num_reset)
    i.delay_1ms                              0x08000ea8   Section        0  systick.o(i.delay_1ms)
    i.delay_decrement                        0x08000ebc   Section        0  systick.o(i.delay_decrement)
    i.esp32_heart_error_tobackup             0x08000ed4   Section        0  main.o(i.esp32_heart_error_tobackup)
    i.fmc_flag_clear                         0x08000f14   Section        0  gd32f4xx_fmc.o(i.fmc_flag_clear)
    i.fmc_halfword_program                   0x08000f20   Section        0  gd32f4xx_fmc.o(i.fmc_halfword_program)
    i.fmc_lock                               0x08000f74   Section        0  gd32f4xx_fmc.o(i.fmc_lock)
    i.fmc_page_erase                         0x08000f88   Section        0  gd32f4xx_fmc.o(i.fmc_page_erase)
    i.fmc_ready_wait                         0x08001004   Section        0  gd32f4xx_fmc.o(i.fmc_ready_wait)
    i.fmc_state_get                          0x08001024   Section        0  gd32f4xx_fmc.o(i.fmc_state_get)
    i.fmc_unlock                             0x08001070   Section        0  gd32f4xx_fmc.o(i.fmc_unlock)
    i.fmc_word_program                       0x08001094   Section        0  gd32f4xx_fmc.o(i.fmc_word_program)
    i.fputc                                  0x080010e8   Section        0  main.o(i.fputc)
    i.gd32_flash_read                        0x0800110c   Section        0  main.o(i.gd32_flash_read)
    i.gd32_flash_write                       0x08001164   Section        0  main.o(i.gd32_flash_write)
    i.get_header                             0x080011b6   Section        0  serial.o(i.get_header)
    i.gpio_af_set                            0x080011d0   Section        0  gd32f4xx_gpio.o(i.gpio_af_set)
    i.gpio_bit_reset                         0x0800122e   Section        0  gd32f4xx_gpio.o(i.gpio_bit_reset)
    i.gpio_bit_set                           0x08001232   Section        0  gd32f4xx_gpio.o(i.gpio_bit_set)
    i.gpio_config                            0x08001238   Section        0  main.o(i.gpio_config)
    i.gpio_mode_set                          0x080012e8   Section        0  gd32f4xx_gpio.o(i.gpio_mode_set)
    i.gpio_output_options_set                0x08001336   Section        0  gd32f4xx_gpio.o(i.gpio_output_options_set)
    i.hard_fault_reset                       0x08001378   Section        0  main.o(i.hard_fault_reset)
    i.jump_to_app                            0x080013c4   Section        0  main.o(i.jump_to_app)
    i.main                                   0x080015f4   Section        0  main.o(i.main)
    i.nvic_irq_enable                        0x080018dc   Section        0  gd32f4xx_misc.o(i.nvic_irq_enable)
    i.nvic_priority_group_set                0x080019a0   Section        0  gd32f4xx_misc.o(i.nvic_priority_group_set)
    i.rcu_clock_freq_get                     0x080019b4   Section        0  gd32f4xx_rcu.o(i.rcu_clock_freq_get)
    i.rcu_periph_clock_enable                0x08001ad8   Section        0  gd32f4xx_rcu.o(i.rcu_periph_clock_enable)
    i.rcu_periph_reset_disable               0x08001afc   Section        0  gd32f4xx_rcu.o(i.rcu_periph_reset_disable)
    i.rcu_periph_reset_enable                0x08001b20   Section        0  gd32f4xx_rcu.o(i.rcu_periph_reset_enable)
    i.send_ack                               0x08001b44   Section        0  serial.o(i.send_ack)
    i.send_ask                               0x08001b52   Section        0  serial.o(i.send_ask)
    i.send_can                               0x08001b60   Section        0  serial.o(i.send_can)
    i.send_nak                               0x08001b6e   Section        0  serial.o(i.send_nak)
    i.send_res_cb                            0x08001b7c   Section        0  serial.o(i.send_res_cb)
    i.system_clock_200m_8m_hxtal             0x08001be4   Section        0  system_gd32f4xx.o(i.system_clock_200m_8m_hxtal)
    system_clock_200m_8m_hxtal               0x08001be5   Thumb Code   240  system_gd32f4xx.o(i.system_clock_200m_8m_hxtal)
    i.system_clock_config                    0x08001ce0   Section        0  system_gd32f4xx.o(i.system_clock_config)
    system_clock_config                      0x08001ce1   Thumb Code     8  system_gd32f4xx.o(i.system_clock_config)
    i.systick_config                         0x08001ce8   Section        0  systick.o(i.systick_config)
    i.timer_disable                          0x08001d38   Section        0  gd32f4xx_timer.o(i.timer_disable)
    i.timer_enable                           0x08001d42   Section        0  gd32f4xx_timer.o(i.timer_enable)
    i.timer_init                             0x08001d4c   Section        0  gd32f4xx_timer.o(i.timer_init)
    i.timer_interrupt_enable                 0x08001de4   Section        0  gd32f4xx_timer.o(i.timer_interrupt_enable)
    i.timer_interrupt_flag_clear             0x08001dec   Section        0  gd32f4xx_timer.o(i.timer_interrupt_flag_clear)
    i.timer_interrupt_flag_get               0x08001df2   Section        0  gd32f4xx_timer.o(i.timer_interrupt_flag_get)
    i.uart4_init                             0x08001e0c   Section        0  serial.o(i.uart4_init)
    i.uart4_transmit                         0x08001ed0   Section        0  serial.o(i.uart4_transmit)
    i.upgrade_datas_process                  0x08001f0c   Section        0  serial.o(i.upgrade_datas_process)
    i.usart2_init                            0x08002428   Section        0  serial.o(i.usart2_init)
    i.usart_baudrate_set                     0x080024ec   Section        0  gd32f4xx_usart.o(i.usart_baudrate_set)
    i.usart_data_receive                     0x080025d4   Section        0  gd32f4xx_usart.o(i.usart_data_receive)
    i.usart_data_transmit                    0x080025de   Section        0  gd32f4xx_usart.o(i.usart_data_transmit)
    i.usart_deinit                           0x080025e8   Section        0  gd32f4xx_usart.o(i.usart_deinit)
    i.usart_disable                          0x080026c4   Section        0  gd32f4xx_usart.o(i.usart_disable)
    i.usart_enable                           0x080026ce   Section        0  gd32f4xx_usart.o(i.usart_enable)
    i.usart_flag_get                         0x080026d8   Section        0  gd32f4xx_usart.o(i.usart_flag_get)
    i.usart_hardware_flow_cts_config         0x080026f6   Section        0  gd32f4xx_usart.o(i.usart_hardware_flow_cts_config)
    i.usart_hardware_flow_rts_config         0x0800270a   Section        0  gd32f4xx_usart.o(i.usart_hardware_flow_rts_config)
    i.usart_interrupt_disable                0x0800271e   Section        0  gd32f4xx_usart.o(i.usart_interrupt_disable)
    i.usart_interrupt_enable                 0x08002738   Section        0  gd32f4xx_usart.o(i.usart_interrupt_enable)
    i.usart_interrupt_flag_get               0x08002752   Section        0  gd32f4xx_usart.o(i.usart_interrupt_flag_get)
    i.usart_parity_config                    0x0800278a   Section        0  gd32f4xx_usart.o(i.usart_parity_config)
    i.usart_receive_config                   0x0800279a   Section        0  gd32f4xx_usart.o(i.usart_receive_config)
    i.usart_stop_bit_set                     0x080027aa   Section        0  gd32f4xx_usart.o(i.usart_stop_bit_set)
    i.usart_transmit_config                  0x080027ba   Section        0  gd32f4xx_usart.o(i.usart_transmit_config)
    i.usart_word_length_set                  0x080027ca   Section        0  gd32f4xx_usart.o(i.usart_word_length_set)
    .constdata                               0x080027da   Section      528  main.o(.constdata)
    __FUNCTION__                             0x080029da   Data          16  main.o(.constdata)
    .data                                    0x20000000   Section       24  main.o(.data)
    fac_us                                   0x20000010   Data           1  main.o(.data)
    fac_ms                                   0x20000012   Data           2  main.o(.data)
    .data                                    0x20000018   Section        2  gd32f4xx_it.o(.data)
    .data                                    0x2000001c   Section        4  systick.o(.data)
    delay                                    0x2000001c   Data           4  systick.o(.data)
    .data                                    0x20000020   Section       17  serial.o(.data)
    send_nck_number                          0x20000023   Data           1  serial.o(.data)
    first_pack_data                          0x20000030   Data           1  serial.o(.data)
    .data                                    0x20000034   Section        4  system_gd32f4xx.o(.data)
    .data                                    0x20000038   Section        4  stdout.o(.data)
    .bss                                     0x2000003c   Section     4608  main.o(.bss)
    FlashBuffer                              0x2000023c   Data        4096  main.o(.bss)
    .bss                                     0x2000123c   Section     6144  serial.o(.bss)
    STACK                                    0x20002a40   Section     1024  startup_gd32f407_427.o(STACK)

    Global Symbols

    Symbol Name                              Value     Ov Type        Size  Object(Section)

    BuildAttributes$$THM_ISAv4$E$P$D$K$B$S$7EM$VFPi3$EXTD16$VFPS$VFMA$PE$A:L22UL41UL21$X:L11$S22US41US21$IEEE1$IW$USESV6$~STKCKD$USESV7$~SHL$OSPACE$ROPI$EBA8$MICROLIB$REQ8$PRES8$EABIv2 0x00000000   Number         0  anon$$obj.o ABSOLUTE
    __ARM_use_no_argv                        0x00000000   Number         0  main.o ABSOLUTE
    _printf_a                                0x00000000   Number         0  stubs.o ABSOLUTE
    _printf_c                                0x00000000   Number         0  stubs.o ABSOLUTE
    _printf_charcount                        0x00000000   Number         0  stubs.o ABSOLUTE
    _printf_d                                0x00000000   Number         0  stubs.o ABSOLUTE
    _printf_e                                0x00000000   Number         0  stubs.o ABSOLUTE
    _printf_f                                0x00000000   Number         0  stubs.o ABSOLUTE
    _printf_flags                            0x00000000   Number         0  stubs.o ABSOLUTE
    _printf_fp_dec                           0x00000000   Number         0  stubs.o ABSOLUTE
    _printf_fp_hex                           0x00000000   Number         0  stubs.o ABSOLUTE
    _printf_g                                0x00000000   Number         0  stubs.o ABSOLUTE
    _printf_i                                0x00000000   Number         0  stubs.o ABSOLUTE
    _printf_int_dec                          0x00000000   Number         0  stubs.o ABSOLUTE
    _printf_l                                0x00000000   Number         0  stubs.o ABSOLUTE
    _printf_lc                               0x00000000   Number         0  stubs.o ABSOLUTE
    _printf_ll                               0x00000000   Number         0  stubs.o ABSOLUTE
    _printf_lld                              0x00000000   Number         0  stubs.o ABSOLUTE
    _printf_lli                              0x00000000   Number         0  stubs.o ABSOLUTE
    _printf_llo                              0x00000000   Number         0  stubs.o ABSOLUTE
    _printf_llu                              0x00000000   Number         0  stubs.o ABSOLUTE
    _printf_llx                              0x00000000   Number         0  stubs.o ABSOLUTE
    _printf_longlong_dec                     0x00000000   Number         0  stubs.o ABSOLUTE
    _printf_longlong_hex                     0x00000000   Number         0  stubs.o ABSOLUTE
    _printf_longlong_oct                     0x00000000   Number         0  stubs.o ABSOLUTE
    _printf_ls                               0x00000000   Number         0  stubs.o ABSOLUTE
    _printf_mbtowc                           0x00000000   Number         0  stubs.o ABSOLUTE
    _printf_n                                0x00000000   Number         0  stubs.o ABSOLUTE
    _printf_o                                0x00000000   Number         0  stubs.o ABSOLUTE
    _printf_p                                0x00000000   Number         0  stubs.o ABSOLUTE
    _printf_percent                          0x00000000   Number         0  stubs.o ABSOLUTE
    _printf_pre_padding                      0x00000000   Number         0  stubs.o ABSOLUTE
    _printf_return_value                     0x00000000   Number         0  stubs.o ABSOLUTE
    _printf_s                                0x00000000   Number         0  stubs.o ABSOLUTE
    _printf_sizespec                         0x00000000   Number         0  stubs.o ABSOLUTE
    _printf_str                              0x00000000   Number         0  stubs.o ABSOLUTE
    _printf_truncate_signed                  0x00000000   Number         0  stubs.o ABSOLUTE
    _printf_truncate_unsigned                0x00000000   Number         0  stubs.o ABSOLUTE
    _printf_u                                0x00000000   Number         0  stubs.o ABSOLUTE
    _printf_wc                               0x00000000   Number         0  stubs.o ABSOLUTE
    _printf_wctomb                           0x00000000   Number         0  stubs.o ABSOLUTE
    _printf_widthprec                        0x00000000   Number         0  stubs.o ABSOLUTE
    _printf_x                                0x00000000   Number         0  stubs.o ABSOLUTE
    __cpp_initialize__aeabi_                  - Undefined Weak Reference
    __cxa_finalize                            - Undefined Weak Reference
    __decompress                              - Undefined Weak Reference
    _clock_init                               - Undefined Weak Reference
    _microlib_exit                            - Undefined Weak Reference
    __Vectors_Size                           0x00000188   Number         0  startup_gd32f407_427.o ABSOLUTE
    __Vectors                                0x08000000   Data           4  startup_gd32f407_427.o(RESET)
    __Vectors_End                            0x08000188   Data           0  startup_gd32f407_427.o(RESET)
    __main                                   0x08000189   Thumb Code     0  entry.o(.ARM.Collect$$$$00000000)
    _main_stk                                0x08000189   Thumb Code     0  entry2.o(.ARM.Collect$$$$00000001)
    _main_scatterload                        0x0800018d   Thumb Code     0  entry5.o(.ARM.Collect$$$$00000004)
    __main_after_scatterload                 0x08000191   Thumb Code     0  entry5.o(.ARM.Collect$$$$00000004)
    _main_clock                              0x08000191   Thumb Code     0  entry7b.o(.ARM.Collect$$$$00000008)
    _main_cpp_init                           0x08000191   Thumb Code     0  entry8b.o(.ARM.Collect$$$$0000000A)
    _main_init                               0x08000191   Thumb Code     0  entry9a.o(.ARM.Collect$$$$0000000B)
    __rt_final_cpp                           0x08000199   Thumb Code     0  entry10a.o(.ARM.Collect$$$$0000000D)
    __rt_final_exit                          0x08000199   Thumb Code     0  entry11a.o(.ARM.Collect$$$$0000000F)
    Reset_Handler                            0x0800019d   Thumb Code     8  startup_gd32f407_427.o(.text)
    ADC_IRQHandler                           0x080001b7   Thumb Code     0  startup_gd32f407_427.o(.text)
    CAN0_EWMC_IRQHandler                     0x080001b7   Thumb Code     0  startup_gd32f407_427.o(.text)
    CAN0_RX0_IRQHandler                      0x080001b7   Thumb Code     0  startup_gd32f407_427.o(.text)
    CAN0_RX1_IRQHandler                      0x080001b7   Thumb Code     0  startup_gd32f407_427.o(.text)
    CAN0_TX_IRQHandler                       0x080001b7   Thumb Code     0  startup_gd32f407_427.o(.text)
    CAN1_EWMC_IRQHandler                     0x080001b7   Thumb Code     0  startup_gd32f407_427.o(.text)
    CAN1_RX0_IRQHandler                      0x080001b7   Thumb Code     0  startup_gd32f407_427.o(.text)
    CAN1_RX1_IRQHandler                      0x080001b7   Thumb Code     0  startup_gd32f407_427.o(.text)
    CAN1_TX_IRQHandler                       0x080001b7   Thumb Code     0  startup_gd32f407_427.o(.text)
    DCI_IRQHandler                           0x080001b7   Thumb Code     0  startup_gd32f407_427.o(.text)
    DMA0_Channel0_IRQHandler                 0x080001b7   Thumb Code     0  startup_gd32f407_427.o(.text)
    DMA0_Channel1_IRQHandler                 0x080001b7   Thumb Code     0  startup_gd32f407_427.o(.text)
    DMA0_Channel2_IRQHandler                 0x080001b7   Thumb Code     0  startup_gd32f407_427.o(.text)
    DMA0_Channel3_IRQHandler                 0x080001b7   Thumb Code     0  startup_gd32f407_427.o(.text)
    DMA0_Channel4_IRQHandler                 0x080001b7   Thumb Code     0  startup_gd32f407_427.o(.text)
    DMA0_Channel5_IRQHandler                 0x080001b7   Thumb Code     0  startup_gd32f407_427.o(.text)
    DMA0_Channel6_IRQHandler                 0x080001b7   Thumb Code     0  startup_gd32f407_427.o(.text)
    DMA0_Channel7_IRQHandler                 0x080001b7   Thumb Code     0  startup_gd32f407_427.o(.text)
    DMA1_Channel0_IRQHandler                 0x080001b7   Thumb Code     0  startup_gd32f407_427.o(.text)
    DMA1_Channel1_IRQHandler                 0x080001b7   Thumb Code     0  startup_gd32f407_427.o(.text)
    DMA1_Channel2_IRQHandler                 0x080001b7   Thumb Code     0  startup_gd32f407_427.o(.text)
    DMA1_Channel3_IRQHandler                 0x080001b7   Thumb Code     0  startup_gd32f407_427.o(.text)
    DMA1_Channel4_IRQHandler                 0x080001b7   Thumb Code     0  startup_gd32f407_427.o(.text)
    DMA1_Channel5_IRQHandler                 0x080001b7   Thumb Code     0  startup_gd32f407_427.o(.text)
    DMA1_Channel6_IRQHandler                 0x080001b7   Thumb Code     0  startup_gd32f407_427.o(.text)
    DMA1_Channel7_IRQHandler                 0x080001b7   Thumb Code     0  startup_gd32f407_427.o(.text)
    ENET_IRQHandler                          0x080001b7   Thumb Code     0  startup_gd32f407_427.o(.text)
    ENET_WKUP_IRQHandler                     0x080001b7   Thumb Code     0  startup_gd32f407_427.o(.text)
    EXMC_IRQHandler                          0x080001b7   Thumb Code     0  startup_gd32f407_427.o(.text)
    EXTI0_IRQHandler                         0x080001b7   Thumb Code     0  startup_gd32f407_427.o(.text)
    EXTI10_15_IRQHandler                     0x080001b7   Thumb Code     0  startup_gd32f407_427.o(.text)
    EXTI1_IRQHandler                         0x080001b7   Thumb Code     0  startup_gd32f407_427.o(.text)
    EXTI2_IRQHandler                         0x080001b7   Thumb Code     0  startup_gd32f407_427.o(.text)
    EXTI3_IRQHandler                         0x080001b7   Thumb Code     0  startup_gd32f407_427.o(.text)
    EXTI4_IRQHandler                         0x080001b7   Thumb Code     0  startup_gd32f407_427.o(.text)
    EXTI5_9_IRQHandler                       0x080001b7   Thumb Code     0  startup_gd32f407_427.o(.text)
    FMC_IRQHandler                           0x080001b7   Thumb Code     0  startup_gd32f407_427.o(.text)
    FPU_IRQHandler                           0x080001b7   Thumb Code     0  startup_gd32f407_427.o(.text)
    I2C0_ER_IRQHandler                       0x080001b7   Thumb Code     0  startup_gd32f407_427.o(.text)
    I2C0_EV_IRQHandler                       0x080001b7   Thumb Code     0  startup_gd32f407_427.o(.text)
    I2C1_ER_IRQHandler                       0x080001b7   Thumb Code     0  startup_gd32f407_427.o(.text)
    I2C1_EV_IRQHandler                       0x080001b7   Thumb Code     0  startup_gd32f407_427.o(.text)
    I2C2_ER_IRQHandler                       0x080001b7   Thumb Code     0  startup_gd32f407_427.o(.text)
    I2C2_EV_IRQHandler                       0x080001b7   Thumb Code     0  startup_gd32f407_427.o(.text)
    LVD_IRQHandler                           0x080001b7   Thumb Code     0  startup_gd32f407_427.o(.text)
    RCU_CTC_IRQHandler                       0x080001b7   Thumb Code     0  startup_gd32f407_427.o(.text)
    RTC_Alarm_IRQHandler                     0x080001b7   Thumb Code     0  startup_gd32f407_427.o(.text)
    RTC_WKUP_IRQHandler                      0x080001b7   Thumb Code     0  startup_gd32f407_427.o(.text)
    SDIO_IRQHandler                          0x080001b7   Thumb Code     0  startup_gd32f407_427.o(.text)
    SPI0_IRQHandler                          0x080001b7   Thumb Code     0  startup_gd32f407_427.o(.text)
    SPI1_IRQHandler                          0x080001b7   Thumb Code     0  startup_gd32f407_427.o(.text)
    SPI2_IRQHandler                          0x080001b7   Thumb Code     0  startup_gd32f407_427.o(.text)
    TAMPER_STAMP_IRQHandler                  0x080001b7   Thumb Code     0  startup_gd32f407_427.o(.text)
    TIMER0_BRK_TIMER8_IRQHandler             0x080001b7   Thumb Code     0  startup_gd32f407_427.o(.text)
    TIMER0_Channel_IRQHandler                0x080001b7   Thumb Code     0  startup_gd32f407_427.o(.text)
    TIMER0_TRG_CMT_TIMER10_IRQHandler        0x080001b7   Thumb Code     0  startup_gd32f407_427.o(.text)
    TIMER0_UP_TIMER9_IRQHandler              0x080001b7   Thumb Code     0  startup_gd32f407_427.o(.text)
    TIMER1_IRQHandler                        0x080001b7   Thumb Code     0  startup_gd32f407_427.o(.text)
    TIMER2_IRQHandler                        0x080001b7   Thumb Code     0  startup_gd32f407_427.o(.text)
    TIMER3_IRQHandler                        0x080001b7   Thumb Code     0  startup_gd32f407_427.o(.text)
    TIMER5_DAC_IRQHandler                    0x080001b7   Thumb Code     0  startup_gd32f407_427.o(.text)
    TIMER6_IRQHandler                        0x080001b7   Thumb Code     0  startup_gd32f407_427.o(.text)
    TIMER7_BRK_TIMER11_IRQHandler            0x080001b7   Thumb Code     0  startup_gd32f407_427.o(.text)
    TIMER7_Channel_IRQHandler                0x080001b7   Thumb Code     0  startup_gd32f407_427.o(.text)
    TIMER7_TRG_CMT_TIMER13_IRQHandler        0x080001b7   Thumb Code     0  startup_gd32f407_427.o(.text)
    TIMER7_UP_TIMER12_IRQHandler             0x080001b7   Thumb Code     0  startup_gd32f407_427.o(.text)
    TRNG_IRQHandler                          0x080001b7   Thumb Code     0  startup_gd32f407_427.o(.text)
    UART3_IRQHandler                         0x080001b7   Thumb Code     0  startup_gd32f407_427.o(.text)
    USART0_IRQHandler                        0x080001b7   Thumb Code     0  startup_gd32f407_427.o(.text)
    USART1_IRQHandler                        0x080001b7   Thumb Code     0  startup_gd32f407_427.o(.text)
    USART2_IRQHandler                        0x080001b7   Thumb Code     0  startup_gd32f407_427.o(.text)
    USART5_IRQHandler                        0x080001b7   Thumb Code     0  startup_gd32f407_427.o(.text)
    USBFS_IRQHandler                         0x080001b7   Thumb Code     0  startup_gd32f407_427.o(.text)
    USBFS_WKUP_IRQHandler                    0x080001b7   Thumb Code     0  startup_gd32f407_427.o(.text)
    USBHS_EP1_In_IRQHandler                  0x080001b7   Thumb Code     0  startup_gd32f407_427.o(.text)
    USBHS_EP1_Out_IRQHandler                 0x080001b7   Thumb Code     0  startup_gd32f407_427.o(.text)
    USBHS_IRQHandler                         0x080001b7   Thumb Code     0  startup_gd32f407_427.o(.text)
    USBHS_WKUP_IRQHandler                    0x080001b7   Thumb Code     0  startup_gd32f407_427.o(.text)
    WWDGT_IRQHandler                         0x080001b7   Thumb Code     0  startup_gd32f407_427.o(.text)
    __aeabi_memcpy                           0x080001c1   Thumb Code    36  memcpya.o(.text)
    __aeabi_memcpy4                          0x080001c1   Thumb Code     0  memcpya.o(.text)
    __aeabi_memcpy8                          0x080001c1   Thumb Code     0  memcpya.o(.text)
    __aeabi_memset                           0x080001e5   Thumb Code    14  memseta.o(.text)
    __aeabi_memset4                          0x080001e5   Thumb Code     0  memseta.o(.text)
    __aeabi_memset8                          0x080001e5   Thumb Code     0  memseta.o(.text)
    __aeabi_memclr                           0x080001f3   Thumb Code     4  memseta.o(.text)
    __aeabi_memclr4                          0x080001f3   Thumb Code     0  memseta.o(.text)
    __aeabi_memclr8                          0x080001f3   Thumb Code     0  memseta.o(.text)
    _memset$wrapper                          0x080001f7   Thumb Code    18  memseta.o(.text)
    __aeabi_uldivmod                         0x08000209   Thumb Code    98  uldiv.o(.text)
    __scatterload                            0x0800026d   Thumb Code    28  init.o(.text)
    __scatterload_rt2                        0x0800026d   Thumb Code     0  init.o(.text)
    __aeabi_llsl                             0x08000291   Thumb Code    30  llshl.o(.text)
    _ll_shift_l                              0x08000291   Thumb Code     0  llshl.o(.text)
    __aeabi_llsr                             0x080002af   Thumb Code    32  llushr.o(.text)
    _ll_ushift_r                             0x080002af   Thumb Code     0  llushr.o(.text)
    BusFault_Handler                         0x080002cf   Thumb Code     4  gd32f4xx_it.o(i.BusFault_Handler)
    CCITT                                    0x080002d3   Thumb Code    80  serial.o(i.CCITT)
    CCITT_Flash                              0x08000325   Thumb Code   158  main.o(i.CCITT_Flash)
    ComTxTask                                0x080003f5   Thumb Code   132  serial.o(i.ComTxTask)
    DebugMon_Handler                         0x080004b1   Thumb Code     2  gd32f4xx_it.o(i.DebugMon_Handler)
    FLASH_ErasePage                          0x080004b3   Thumb Code    44  main.o(i.FLASH_ErasePage)
    FLASH_Read                               0x080004e1   Thumb Code    80  main.o(i.FLASH_Read)
    FLASH_Write                              0x08000535   Thumb Code   326  main.o(i.FLASH_Write)
    FLASH_WriteNotErase                      0x08000685   Thumb Code    60  main.o(i.FLASH_WriteNotErase)
    FlashErase                               0x080006c5   Thumb Code    84  serial.o(i.FlashErase)
    HardFault_Handler                        0x08000719   Thumb Code     4  gd32f4xx_it.o(i.HardFault_Handler)
    MemManage_Handler                        0x0800071d   Thumb Code     4  gd32f4xx_it.o(i.MemManage_Handler)
    NMI_Handler                              0x08000721   Thumb Code     2  gd32f4xx_it.o(i.NMI_Handler)
    NVIC_config                              0x08000775   Thumb Code    22  main.o(i.NVIC_config)
    PendSV_Handler                           0x0800078b   Thumb Code     2  gd32f4xx_it.o(i.PendSV_Handler)
    SVC_Handler                              0x0800078d   Thumb Code     2  gd32f4xx_it.o(i.SVC_Handler)
    SysTick_Handler                          0x0800078f   Thumb Code     8  gd32f4xx_it.o(i.SysTick_Handler)
    SystemInit                               0x08000799   Thumb Code   194  system_gd32f4xx.o(i.SystemInit)
    TIMER4_IRQHandler                        0x0800086d   Thumb Code    54  gd32f4xx_it.o(i.TIMER4_IRQHandler)
    Time_init                                0x080008b5   Thumb Code    62  main.o(i.Time_init)
    UART4_IRQHandler                         0x080008f9   Thumb Code    72  serial.o(i.UART4_IRQHandler)
    UsageFault_Handler                       0x08000959   Thumb Code     4  gd32f4xx_it.o(i.UsageFault_Handler)
    __0printf$8                              0x0800095d   Thumb Code    22  printf8.o(i.__0printf$8)
    __1printf$8                              0x0800095d   Thumb Code     0  printf8.o(i.__0printf$8)
    __2printf                                0x0800095d   Thumb Code     0  printf8.o(i.__0printf$8)
    __scatterload_copy                       0x0800097d   Thumb Code    14  handlers.o(i.__scatterload_copy)
    __scatterload_null                       0x0800098b   Thumb Code     2  handlers.o(i.__scatterload_null)
    __scatterload_zeroinit                   0x0800098d   Thumb Code    14  handlers.o(i.__scatterload_zeroinit)
    app_backup_copy                          0x08000e01   Thumb Code   116  main.o(i.app_backup_copy)
    boot_reset_num_reset                     0x08000e91   Thumb Code    18  main.o(i.boot_reset_num_reset)
    delay_1ms                                0x08000ea9   Thumb Code    16  systick.o(i.delay_1ms)
    delay_decrement                          0x08000ebd   Thumb Code    18  systick.o(i.delay_decrement)
    esp32_heart_error_tobackup               0x08000ed5   Thumb Code    24  main.o(i.esp32_heart_error_tobackup)
    fmc_flag_clear                           0x08000f15   Thumb Code     6  gd32f4xx_fmc.o(i.fmc_flag_clear)
    fmc_halfword_program                     0x08000f21   Thumb Code    80  gd32f4xx_fmc.o(i.fmc_halfword_program)
    fmc_lock                                 0x08000f75   Thumb Code    14  gd32f4xx_fmc.o(i.fmc_lock)
    fmc_page_erase                           0x08000f89   Thumb Code   114  gd32f4xx_fmc.o(i.fmc_page_erase)
    fmc_ready_wait                           0x08001005   Thumb Code    32  gd32f4xx_fmc.o(i.fmc_ready_wait)
    fmc_state_get                            0x08001025   Thumb Code    70  gd32f4xx_fmc.o(i.fmc_state_get)
    fmc_unlock                               0x08001071   Thumb Code    24  gd32f4xx_fmc.o(i.fmc_unlock)
    fmc_word_program                         0x08001095   Thumb Code    80  gd32f4xx_fmc.o(i.fmc_word_program)
    fputc                                    0x080010e9   Thumb Code    32  main.o(i.fputc)
    gd32_flash_read                          0x0800110d   Thumb Code    54  main.o(i.gd32_flash_read)
    gd32_flash_write                         0x08001165   Thumb Code    82  main.o(i.gd32_flash_write)
    get_header                               0x080011b7   Thumb Code    26  serial.o(i.get_header)
    gpio_af_set                              0x080011d1   Thumb Code    94  gd32f4xx_gpio.o(i.gpio_af_set)
    gpio_bit_reset                           0x0800122f   Thumb Code     4  gd32f4xx_gpio.o(i.gpio_bit_reset)
    gpio_bit_set                             0x08001233   Thumb Code     4  gd32f4xx_gpio.o(i.gpio_bit_set)
    gpio_config                              0x08001239   Thumb Code   162  main.o(i.gpio_config)
    gpio_mode_set                            0x080012e9   Thumb Code    78  gd32f4xx_gpio.o(i.gpio_mode_set)
    gpio_output_options_set                  0x08001337   Thumb Code    66  gd32f4xx_gpio.o(i.gpio_output_options_set)
    hard_fault_reset                         0x08001379   Thumb Code    42  main.o(i.hard_fault_reset)
    jump_to_app                              0x080013c5   Thumb Code   356  main.o(i.jump_to_app)
    main                                     0x080015f5   Thumb Code   504  main.o(i.main)
    nvic_irq_enable                          0x080018dd   Thumb Code   186  gd32f4xx_misc.o(i.nvic_irq_enable)
    nvic_priority_group_set                  0x080019a1   Thumb Code    10  gd32f4xx_misc.o(i.nvic_priority_group_set)
    rcu_clock_freq_get                       0x080019b5   Thumb Code   264  gd32f4xx_rcu.o(i.rcu_clock_freq_get)
    rcu_periph_clock_enable                  0x08001ad9   Thumb Code    32  gd32f4xx_rcu.o(i.rcu_periph_clock_enable)
    rcu_periph_reset_disable                 0x08001afd   Thumb Code    32  gd32f4xx_rcu.o(i.rcu_periph_reset_disable)
    rcu_periph_reset_enable                  0x08001b21   Thumb Code    32  gd32f4xx_rcu.o(i.rcu_periph_reset_enable)
    send_ack                                 0x08001b45   Thumb Code    14  serial.o(i.send_ack)
    send_ask                                 0x08001b53   Thumb Code    14  serial.o(i.send_ask)
    send_can                                 0x08001b61   Thumb Code    14  serial.o(i.send_can)
    send_nak                                 0x08001b6f   Thumb Code    14  serial.o(i.send_nak)
    send_res_cb                              0x08001b7d   Thumb Code    98  serial.o(i.send_res_cb)
    systick_config                           0x08001ce9   Thumb Code    74  systick.o(i.systick_config)
    timer_disable                            0x08001d39   Thumb Code    10  gd32f4xx_timer.o(i.timer_disable)
    timer_enable                             0x08001d43   Thumb Code    10  gd32f4xx_timer.o(i.timer_enable)
    timer_init                               0x08001d4d   Thumb Code   122  gd32f4xx_timer.o(i.timer_init)
    timer_interrupt_enable                   0x08001de5   Thumb Code     8  gd32f4xx_timer.o(i.timer_interrupt_enable)
    timer_interrupt_flag_clear               0x08001ded   Thumb Code     6  gd32f4xx_timer.o(i.timer_interrupt_flag_clear)
    timer_interrupt_flag_get                 0x08001df3   Thumb Code    24  gd32f4xx_timer.o(i.timer_interrupt_flag_get)
    uart4_init                               0x08001e0d   Thumb Code   184  serial.o(i.uart4_init)
    uart4_transmit                           0x08001ed1   Thumb Code    54  serial.o(i.uart4_transmit)
    upgrade_datas_process                    0x08001f0d   Thumb Code   888  serial.o(i.upgrade_datas_process)
    usart2_init                              0x08002429   Thumb Code   188  serial.o(i.usart2_init)
    usart_baudrate_set                       0x080024ed   Thumb Code   224  gd32f4xx_usart.o(i.usart_baudrate_set)
    usart_data_receive                       0x080025d5   Thumb Code    10  gd32f4xx_usart.o(i.usart_data_receive)
    usart_data_transmit                      0x080025df   Thumb Code     8  gd32f4xx_usart.o(i.usart_data_transmit)
    usart_deinit                             0x080025e9   Thumb Code   210  gd32f4xx_usart.o(i.usart_deinit)
    usart_disable                            0x080026c5   Thumb Code    10  gd32f4xx_usart.o(i.usart_disable)
    usart_enable                             0x080026cf   Thumb Code    10  gd32f4xx_usart.o(i.usart_enable)
    usart_flag_get                           0x080026d9   Thumb Code    30  gd32f4xx_usart.o(i.usart_flag_get)
    usart_hardware_flow_cts_config           0x080026f7   Thumb Code    20  gd32f4xx_usart.o(i.usart_hardware_flow_cts_config)
    usart_hardware_flow_rts_config           0x0800270b   Thumb Code    20  gd32f4xx_usart.o(i.usart_hardware_flow_rts_config)
    usart_interrupt_disable                  0x0800271f   Thumb Code    26  gd32f4xx_usart.o(i.usart_interrupt_disable)
    usart_interrupt_enable                   0x08002739   Thumb Code    26  gd32f4xx_usart.o(i.usart_interrupt_enable)
    usart_interrupt_flag_get                 0x08002753   Thumb Code    56  gd32f4xx_usart.o(i.usart_interrupt_flag_get)
    usart_parity_config                      0x0800278b   Thumb Code    16  gd32f4xx_usart.o(i.usart_parity_config)
    usart_receive_config                     0x0800279b   Thumb Code    16  gd32f4xx_usart.o(i.usart_receive_config)
    usart_stop_bit_set                       0x080027ab   Thumb Code    16  gd32f4xx_usart.o(i.usart_stop_bit_set)
    usart_transmit_config                    0x080027bb   Thumb Code    16  gd32f4xx_usart.o(i.usart_transmit_config)
    usart_word_length_set                    0x080027cb   Thumb Code    16  gd32f4xx_usart.o(i.usart_word_length_set)
    ccitt_table                              0x080027da   Data         512  main.o(.constdata)
    Region$$Table$$Base                      0x080029ec   Number         0  anon$$obj.o(Region$$Table)
    Region$$Table$$Limit                     0x08002a0c   Number         0  anon$$obj.o(Region$$Table)
    UPDATA                                   0x20000000   Data           1  main.o(.data)
    Jump_To_Application                      0x20000004   Data           4  main.o(.data)
    JumpAddress                              0x20000008   Data           4  main.o(.data)
    num_of_data_write                        0x2000000c   Data           4  main.o(.data)
    updata_flag                              0x20000014   Data           2  main.o(.data)
    bootloader_version                       0x20000016   Data           2  main.o(.data)
    uart4_recv_time                          0x20000018   Data           2  gd32f4xx_it.o(.data)
    uart_rx_num                              0x20000020   Data           2  serial.o(.data)
    received                                 0x20000022   Data           1  serial.o(.data)
    updata_timeout                           0x20000024   Data           4  serial.o(.data)
    receive_pack_num                         0x20000028   Data           2  serial.o(.data)
    upgrade_success                          0x2000002a   Data           1  serial.o(.data)
    esp32_heart_error                        0x2000002c   Data           4  serial.o(.data)
    SystemCoreClock                          0x20000034   Data           4  system_gd32f4xx.o(.data)
    __stdout                                 0x20000038   Data           4  stdout.o(.data)
    rxbuffer                                 0x2000003c   Data         512  main.o(.bss)
    rx_buf                                   0x2000123c   Data        2048  serial.o(.bss)
    usart_to_flash                           0x20001a3c   Data        4096  serial.o(.bss)
    __initial_sp                             0x20002e40   Data           0  startup_gd32f407_427.o(STACK)



==============================================================================

Memory Map of the image

  Image Entry point : 0x08000189

  Load Region LR_IROM1 (Base: 0x08000000, Size: 0x00002a48, Max: 0x00100000, ABSOLUTE)

    Execution Region ER_IROM1 (Base: 0x08000000, Size: 0x00002a0c, Max: 0x00100000, ABSOLUTE)

    Base Addr    Size         Type   Attr      Idx    E Section Name        Object

    0x08000000   0x00000188   Data   RO         6263    RESET               startup_gd32f407_427.o
    0x08000188   0x00000000   Code   RO         6268  * .ARM.Collect$$$$00000000  mc_w.l(entry.o)
    0x08000188   0x00000004   Code   RO         6538    .ARM.Collect$$$$00000001  mc_w.l(entry2.o)
    0x0800018c   0x00000004   Code   RO         6541    .ARM.Collect$$$$00000004  mc_w.l(entry5.o)
    0x08000190   0x00000000   Code   RO         6543    .ARM.Collect$$$$00000008  mc_w.l(entry7b.o)
    0x08000190   0x00000000   Code   RO         6545    .ARM.Collect$$$$0000000A  mc_w.l(entry8b.o)
    0x08000190   0x00000008   Code   RO         6546    .ARM.Collect$$$$0000000B  mc_w.l(entry9a.o)
    0x08000198   0x00000000   Code   RO         6548    .ARM.Collect$$$$0000000D  mc_w.l(entry10a.o)
    0x08000198   0x00000000   Code   RO         6550    .ARM.Collect$$$$0000000F  mc_w.l(entry11a.o)
    0x08000198   0x00000004   Code   RO         6539    .ARM.Collect$$$$00002712  mc_w.l(entry2.o)
    0x0800019c   0x00000024   Code   RO         6264    .text               startup_gd32f407_427.o
    0x080001c0   0x00000024   Code   RO         6271    .text               mc_w.l(memcpya.o)
    0x080001e4   0x00000024   Code   RO         6273    .text               mc_w.l(memseta.o)
    0x08000208   0x00000062   Code   RO         6555    .text               mc_w.l(uldiv.o)
    0x0800026a   0x00000002   PAD
    0x0800026c   0x00000024   Code   RO         6568    .text               mc_w.l(init.o)
    0x08000290   0x0000001e   Code   RO         6570    .text               mc_w.l(llshl.o)
    0x080002ae   0x00000020   Code   RO         6572    .text               mc_w.l(llushr.o)
    0x080002ce   0x00000004   Code   RO          268    i.BusFault_Handler  gd32f4xx_it.o
    0x080002d2   0x00000050   Code   RO          414    i.CCITT             serial.o
    0x08000322   0x00000002   PAD
    0x08000324   0x000000d0   Code   RO            3    i.CCITT_Flash       main.o
    0x080003f4   0x000000bc   Code   RO          415    i.ComTxTask         serial.o
    0x080004b0   0x00000002   Code   RO          269    i.DebugMon_Handler  gd32f4xx_it.o
    0x080004b2   0x0000002c   Code   RO            4    i.FLASH_ErasePage   main.o
    0x080004de   0x00000002   PAD
    0x080004e0   0x00000054   Code   RO            5    i.FLASH_Read        main.o
    0x08000534   0x00000150   Code   RO            6    i.FLASH_Write       main.o
    0x08000684   0x00000040   Code   RO            7    i.FLASH_WriteNotErase  main.o
    0x080006c4   0x00000054   Code   RO          416    i.FlashErase        serial.o
    0x08000718   0x00000004   Code   RO          270    i.HardFault_Handler  gd32f4xx_it.o
    0x0800071c   0x00000004   Code   RO          271    i.MemManage_Handler  gd32f4xx_it.o
    0x08000720   0x00000002   Code   RO          272    i.NMI_Handler       gd32f4xx_it.o
    0x08000722   0x00000002   PAD
    0x08000724   0x00000028   Code   RO          368    i.NVIC_SetPriority  systick.o
    0x0800074c   0x00000028   Code   RO            8    i.NVIC_SystemReset  main.o
    0x08000774   0x00000016   Code   RO            9    i.NVIC_config       main.o
    0x0800078a   0x00000002   Code   RO          273    i.PendSV_Handler    gd32f4xx_it.o
    0x0800078c   0x00000002   Code   RO          274    i.SVC_Handler       gd32f4xx_it.o
    0x0800078e   0x00000008   Code   RO          275    i.SysTick_Handler   gd32f4xx_it.o
    0x08000796   0x00000002   PAD
    0x08000798   0x000000d4   Code   RO          609    i.SystemInit        system_gd32f4xx.o
    0x0800086c   0x00000048   Code   RO          276    i.TIMER4_IRQHandler  gd32f4xx_it.o
    0x080008b4   0x00000044   Code   RO           10    i.Time_init         main.o
    0x080008f8   0x00000060   Code   RO          417    i.UART4_IRQHandler  serial.o
    0x08000958   0x00000004   Code   RO          277    i.UsageFault_Handler  gd32f4xx_it.o
    0x0800095c   0x00000020   Code   RO         6484    i.__0printf$8       mc_w.l(printf8.o)
    0x0800097c   0x0000000e   Code   RO         6580    i.__scatterload_copy  mc_w.l(handlers.o)
    0x0800098a   0x00000002   Code   RO         6581    i.__scatterload_null  mc_w.l(handlers.o)
    0x0800098c   0x0000000e   Code   RO         6582    i.__scatterload_zeroinit  mc_w.l(handlers.o)
    0x0800099a   0x00000002   PAD
    0x0800099c   0x00000410   Code   RO         6491    i._printf_core      mc_w.l(printf8.o)
    0x08000dac   0x00000024   Code   RO         6492    i._printf_post_padding  mc_w.l(printf8.o)
    0x08000dd0   0x0000002e   Code   RO         6493    i._printf_pre_padding  mc_w.l(printf8.o)
    0x08000dfe   0x00000002   PAD
    0x08000e00   0x00000090   Code   RO           11    i.app_backup_copy   main.o
    0x08000e90   0x00000018   Code   RO           12    i.boot_reset_num_reset  main.o
    0x08000ea8   0x00000014   Code   RO          369    i.delay_1ms         systick.o
    0x08000ebc   0x00000018   Code   RO          370    i.delay_decrement   systick.o
    0x08000ed4   0x00000040   Code   RO           13    i.esp32_heart_error_tobackup  main.o
    0x08000f14   0x0000000c   Code   RO         2856    i.fmc_flag_clear    gd32f4xx_fmc.o
    0x08000f20   0x00000054   Code   RO         2858    i.fmc_halfword_program  gd32f4xx_fmc.o
    0x08000f74   0x00000014   Code   RO         2863    i.fmc_lock          gd32f4xx_fmc.o
    0x08000f88   0x0000007c   Code   RO         2865    i.fmc_page_erase    gd32f4xx_fmc.o
    0x08001004   0x00000020   Code   RO         2866    i.fmc_ready_wait    gd32f4xx_fmc.o
    0x08001024   0x0000004c   Code   RO         2868    i.fmc_state_get     gd32f4xx_fmc.o
    0x08001070   0x00000024   Code   RO         2869    i.fmc_unlock        gd32f4xx_fmc.o
    0x08001094   0x00000054   Code   RO         2870    i.fmc_word_program  gd32f4xx_fmc.o
    0x080010e8   0x00000024   Code   RO           15    i.fputc             main.o
    0x0800110c   0x00000058   Code   RO           16    i.gd32_flash_read   main.o
    0x08001164   0x00000052   Code   RO           17    i.gd32_flash_write  main.o
    0x080011b6   0x0000001a   Code   RO          418    i.get_header        serial.o
    0x080011d0   0x0000005e   Code   RO         3160    i.gpio_af_set       gd32f4xx_gpio.o
    0x0800122e   0x00000004   Code   RO         3161    i.gpio_bit_reset    gd32f4xx_gpio.o
    0x08001232   0x00000004   Code   RO         3162    i.gpio_bit_set      gd32f4xx_gpio.o
    0x08001236   0x00000002   PAD
    0x08001238   0x000000b0   Code   RO           19    i.gpio_config       main.o
    0x080012e8   0x0000004e   Code   RO         3168    i.gpio_mode_set     gd32f4xx_gpio.o
    0x08001336   0x00000042   Code   RO         3170    i.gpio_output_options_set  gd32f4xx_gpio.o
    0x08001378   0x0000004c   Code   RO           20    i.hard_fault_reset  main.o
    0x080013c4   0x00000230   Code   RO           21    i.jump_to_app       main.o
    0x080015f4   0x000002e8   Code   RO           22    i.main              main.o
    0x080018dc   0x000000c4   Code   RO         3742    i.nvic_irq_enable   gd32f4xx_misc.o
    0x080019a0   0x00000014   Code   RO         3743    i.nvic_priority_group_set  gd32f4xx_misc.o
    0x080019b4   0x00000124   Code   RO         3947    i.rcu_clock_freq_get  gd32f4xx_rcu.o
    0x08001ad8   0x00000024   Code   RO         3966    i.rcu_periph_clock_enable  gd32f4xx_rcu.o
    0x08001afc   0x00000024   Code   RO         3969    i.rcu_periph_reset_disable  gd32f4xx_rcu.o
    0x08001b20   0x00000024   Code   RO         3970    i.rcu_periph_reset_enable  gd32f4xx_rcu.o
    0x08001b44   0x0000000e   Code   RO          419    i.send_ack          serial.o
    0x08001b52   0x0000000e   Code   RO          420    i.send_ask          serial.o
    0x08001b60   0x0000000e   Code   RO          421    i.send_can          serial.o
    0x08001b6e   0x0000000e   Code   RO          422    i.send_nak          serial.o
    0x08001b7c   0x00000068   Code   RO          423    i.send_res_cb       serial.o
    0x08001be4   0x000000fc   Code   RO          610    i.system_clock_200m_8m_hxtal  system_gd32f4xx.o
    0x08001ce0   0x00000008   Code   RO          611    i.system_clock_config  system_gd32f4xx.o
    0x08001ce8   0x00000050   Code   RO          371    i.systick_config    systick.o
    0x08001d38   0x0000000a   Code   RO         5145    i.timer_disable     gd32f4xx_timer.o
    0x08001d42   0x0000000a   Code   RO         5149    i.timer_enable      gd32f4xx_timer.o
    0x08001d4c   0x00000098   Code   RO         5159    i.timer_init        gd32f4xx_timer.o
    0x08001de4   0x00000008   Code   RO         5166    i.timer_interrupt_enable  gd32f4xx_timer.o
    0x08001dec   0x00000006   Code   RO         5167    i.timer_interrupt_flag_clear  gd32f4xx_timer.o
    0x08001df2   0x00000018   Code   RO         5168    i.timer_interrupt_flag_get  gd32f4xx_timer.o
    0x08001e0a   0x00000002   PAD
    0x08001e0c   0x000000c4   Code   RO          424    i.uart4_init        serial.o
    0x08001ed0   0x0000003c   Code   RO          425    i.uart4_transmit    serial.o
    0x08001f0c   0x0000051c   Code   RO          426    i.upgrade_datas_process  serial.o
    0x08002428   0x000000c4   Code   RO          427    i.usart2_init       serial.o
    0x080024ec   0x000000e8   Code   RO         5806    i.usart_baudrate_set  gd32f4xx_usart.o
    0x080025d4   0x0000000a   Code   RO         5810    i.usart_data_receive  gd32f4xx_usart.o
    0x080025de   0x00000008   Code   RO         5811    i.usart_data_transmit  gd32f4xx_usart.o
    0x080025e6   0x00000002   PAD
    0x080025e8   0x000000dc   Code   RO         5812    i.usart_deinit      gd32f4xx_usart.o
    0x080026c4   0x0000000a   Code   RO         5813    i.usart_disable     gd32f4xx_usart.o
    0x080026ce   0x0000000a   Code   RO         5816    i.usart_enable      gd32f4xx_usart.o
    0x080026d8   0x0000001e   Code   RO         5818    i.usart_flag_get    gd32f4xx_usart.o
    0x080026f6   0x00000014   Code   RO         5823    i.usart_hardware_flow_cts_config  gd32f4xx_usart.o
    0x0800270a   0x00000014   Code   RO         5824    i.usart_hardware_flow_rts_config  gd32f4xx_usart.o
    0x0800271e   0x0000001a   Code   RO         5825    i.usart_interrupt_disable  gd32f4xx_usart.o
    0x08002738   0x0000001a   Code   RO         5826    i.usart_interrupt_enable  gd32f4xx_usart.o
    0x08002752   0x00000038   Code   RO         5828    i.usart_interrupt_flag_get  gd32f4xx_usart.o
    0x0800278a   0x00000010   Code   RO         5841    i.usart_parity_config  gd32f4xx_usart.o
    0x0800279a   0x00000010   Code   RO         5843    i.usart_receive_config  gd32f4xx_usart.o
    0x080027aa   0x00000010   Code   RO         5854    i.usart_stop_bit_set  gd32f4xx_usart.o
    0x080027ba   0x00000010   Code   RO         5858    i.usart_transmit_config  gd32f4xx_usart.o
    0x080027ca   0x00000010   Code   RO         5859    i.usart_word_length_set  gd32f4xx_usart.o
    0x080027da   0x00000210   Data   RO           24    .constdata          main.o
    0x080029ea   0x00000002   PAD
    0x080029ec   0x00000020   Data   RO         6578    Region$$Table       anon$$obj.o


    Execution Region RW_IRAM1 (Base: 0x20000000, Size: 0x00002e40, Max: 0x00030000, ABSOLUTE)

    Base Addr    Size         Type   Attr      Idx    E Section Name        Object

    0x20000000   0x00000018   Data   RW           25    .data               main.o
    0x20000018   0x00000002   Data   RW          278    .data               gd32f4xx_it.o
    0x2000001a   0x00000002   PAD
    0x2000001c   0x00000004   Data   RW          372    .data               systick.o
    0x20000020   0x00000011   Data   RW          429    .data               serial.o
    0x20000031   0x00000003   PAD
    0x20000034   0x00000004   Data   RW          612    .data               system_gd32f4xx.o
    0x20000038   0x00000004   Data   RW         6552    .data               mc_w.l(stdout.o)
    0x2000003c   0x00001200   Zero   RW           23    .bss                main.o
    0x2000123c   0x00001800   Zero   RW          428    .bss                serial.o
    0x20002a3c   0x00000004   PAD
    0x20002a40   0x00000400   Zero   RW         6261    STACK               startup_gd32f407_427.o


==============================================================================

Image component sizes


      Code (inc. data)   RO Data    RW Data    ZI Data      Debug   Object Name

       468         48          0          0          0      13701   gd32f4xx_fmc.o
       246          0          0          0          0       4260   gd32f4xx_gpio.o
       104         18          0          2          0       5328   gd32f4xx_it.o
       216         20          0          0          0       1716   gd32f4xx_misc.o
       400         40          0          0          0       4164   gd32f4xx_rcu.o
       210         30          0          0          0      21577   gd32f4xx_timer.o
       748         18          0          0          0      20945   gd32f4xx_usart.o
      2860        694        528         24       4608      80029   main.o
      2394        532          0         17       6144      43684   serial.o
        36          8        392          0       1024        996   startup_gd32f407_427.o
       472         30          0          4          0       3347   system_gd32f4xx.o
       164         24          0          4          0      29422   systick.o

    ----------------------------------------------------------------------
      8332       1462        954         56      11780     229169   Object Totals
         0          0         32          0          0          0   (incl. Generated)
        14          0          2          5          4          0   (incl. Padding)

    ----------------------------------------------------------------------

      Code (inc. data)   RO Data    RW Data    ZI Data      Debug   Library Member Name

         0          0          0          0          0          0   entry.o
         0          0          0          0          0          0   entry10a.o
         0          0          0          0          0          0   entry11a.o
         8          4          0          0          0          0   entry2.o
         4          0          0          0          0          0   entry5.o
         0          0          0          0          0          0   entry7b.o
         0          0          0          0          0          0   entry8b.o
         8          4          0          0          0          0   entry9a.o
        30          0          0          0          0          0   handlers.o
        36          8          0          0          0         68   init.o
        30          0          0          0          0         68   llshl.o
        32          0          0          0          0         68   llushr.o
        36          0          0          0          0         68   memcpya.o
        36          0          0          0          0        108   memseta.o
      1154         54          0          0          0        352   printf8.o
         0          0          0          4          0          0   stdout.o
        98          0          0          0          0         92   uldiv.o

    ----------------------------------------------------------------------
      1478         70          0          4          0        824   Library Totals
         6          0          0          0          0          0   (incl. Padding)

    ----------------------------------------------------------------------

      Code (inc. data)   RO Data    RW Data    ZI Data      Debug   Library Name

      1472         70          0          4          0        824   mc_w.l

    ----------------------------------------------------------------------
      1478         70          0          4          0        824   Library Totals

    ----------------------------------------------------------------------

==============================================================================


      Code (inc. data)   RO Data    RW Data    ZI Data      Debug   

      9810       1532        954         60      11780     221233   Grand Totals
      9810       1532        954         60      11780     221233   ELF Image Totals
      9810       1532        954         60          0          0   ROM Totals

==============================================================================

    Total RO  Size (Code + RO Data)                10764 (  10.51kB)
    Total RW  Size (RW Data + ZI Data)             11840 (  11.56kB)
    Total ROM Size (Code + RO Data + RW Data)      10824 (  10.57kB)

==============================================================================

